{
  "_format": "hh-sol-artifact-1",
  "contractName": "ProfileContractUpgradeable",
  "sourceName": "contracts/ProfileUpgradable.sol",
  "abi": [
    {
      "anonymous": false,
      "inputs": [
        {
          "indexed": true,
          "internalType": "address",
          "name": "manager",
          "type": "address"
        },
        {
          "indexed": true,
          "internalType": "address",
          "name": "initiator",
          "type": "address"
        },
        {
          "indexed": false,
          "internalType": "uint256",
          "name": "profileID",
          "type": "uint256"
        }
      ],
      "name": "AddAddressToProfile",
      "type": "event"
    },
    {
      "anonymous": false,
      "inputs": [
        {
          "indexed": true,
          "internalType": "address",
          "name": "manager",
          "type": "address"
        },
        {
          "indexed": false,
          "internalType": "string",
          "name": "externalAddress",
          "type": "string"
        },
        {
          "indexed": false,
          "internalType": "uint256",
          "name": "networkID",
          "type": "uint256"
        },
        {
          "indexed": false,
          "internalType": "uint256",
          "name": "profileID",
          "type": "uint256"
        }
      ],
      "name": "AddExternalAddressToProfile",
      "type": "event"
    },
    {
      "anonymous": false,
      "inputs": [
        {
          "indexed": true,
          "internalType": "address",
          "name": "initiator",
          "type": "address"
        },
        {
          "indexed": false,
          "internalType": "string",
          "name": "networkType",
          "type": "string"
        },
        {
          "indexed": false,
          "internalType": "uint256",
          "name": "networkID",
          "type": "uint256"
        }
      ],
      "name": "AddExternalNetwork",
      "type": "event"
    },
    {
      "anonymous": false,
      "inputs": [
        {
          "indexed": true,
          "internalType": "address",
          "name": "initiator",
          "type": "address"
        },
        {
          "indexed": false,
          "internalType": "uint256",
          "name": "profileID",
          "type": "uint256"
        },
        {
          "indexed": false,
          "internalType": "uint256",
          "name": "networkID",
          "type": "uint256"
        }
      ],
      "name": "AddExternalProfileMapping",
      "type": "event"
    },
    {
      "anonymous": false,
      "inputs": [
        {
          "indexed": true,
          "internalType": "address",
          "name": "initiator",
          "type": "address"
        },
        {
          "indexed": false,
          "internalType": "uint256",
          "name": "profileID",
          "type": "uint256"
        }
      ],
      "name": "AddProfileMapping",
      "type": "event"
    },
    {
      "anonymous": false,
      "inputs": [
        {
          "indexed": true,
          "internalType": "address",
          "name": "creator",
          "type": "address"
        },
        {
          "indexed": false,
          "internalType": "uint256",
          "name": "profileID",
          "type": "uint256"
        },
        {
          "indexed": false,
          "internalType": "string",
          "name": "identityID",
          "type": "string"
        }
      ],
      "name": "CreateProfile",
      "type": "event"
    },
    {
      "anonymous": false,
      "inputs": [
        {
          "indexed": true,
          "internalType": "bytes32",
          "name": "role",
          "type": "bytes32"
        },
        {
          "indexed": true,
          "internalType": "bytes32",
          "name": "previousAdminRole",
          "type": "bytes32"
        },
        {
          "indexed": true,
          "internalType": "bytes32",
          "name": "newAdminRole",
          "type": "bytes32"
        }
      ],
      "name": "RoleAdminChanged",
      "type": "event"
    },
    {
      "anonymous": false,
      "inputs": [
        {
          "indexed": true,
          "internalType": "bytes32",
          "name": "role",
          "type": "bytes32"
        },
        {
          "indexed": true,
          "internalType": "address",
          "name": "account",
          "type": "address"
        },
        {
          "indexed": true,
          "internalType": "address",
          "name": "sender",
          "type": "address"
        }
      ],
      "name": "RoleGranted",
      "type": "event"
    },
    {
      "anonymous": false,
      "inputs": [
        {
          "indexed": true,
          "internalType": "bytes32",
          "name": "role",
          "type": "bytes32"
        },
        {
          "indexed": true,
          "internalType": "address",
          "name": "account",
          "type": "address"
        },
        {
          "indexed": true,
          "internalType": "address",
          "name": "sender",
          "type": "address"
        }
      ],
      "name": "RoleRevoked",
      "type": "event"
    },
    {
      "anonymous": false,
      "inputs": [
        {
          "indexed": true,
          "internalType": "address",
          "name": "initiator",
          "type": "address"
        },
        {
          "indexed": false,
          "internalType": "uint256",
          "name": "networkID",
          "type": "uint256"
        },
        {
          "indexed": false,
          "internalType": "bool",
          "name": "isEnabled",
          "type": "bool"
        }
      ],
      "name": "SetExternalNetworkState",
      "type": "event"
    },
    {
      "anonymous": false,
      "inputs": [
        {
          "indexed": true,
          "internalType": "address",
          "name": "manager",
          "type": "address"
        },
        {
          "indexed": false,
          "internalType": "uint256",
          "name": "profileID",
          "type": "uint256"
        },
        {
          "indexed": false,
          "internalType": "string",
          "name": "identityID",
          "type": "string"
        }
      ],
      "name": "UpdateProfile",
      "type": "event"
    },
    {
      "inputs": [],
      "name": "DAO_ROLE",
      "outputs": [
        {
          "internalType": "bytes32",
          "name": "",
          "type": "bytes32"
        }
      ],
      "stateMutability": "view",
      "type": "function"
    },
    {
      "inputs": [],
      "name": "DEFAULT_ADMIN_ROLE",
      "outputs": [
        {
          "internalType": "bytes32",
          "name": "",
          "type": "bytes32"
        }
      ],
      "stateMutability": "view",
      "type": "function"
    },
    {
      "inputs": [
        {
          "internalType": "address",
          "name": "altAddress",
          "type": "address"
        },
        {
          "internalType": "bool",
          "name": "isManager",
          "type": "bool"
        }
      ],
      "name": "addAddressToProfile",
      "outputs": [],
      "stateMutability": "nonpayable",
      "type": "function"
    },
    {
      "inputs": [
        {
          "internalType": "uint256",
          "name": "networkID",
          "type": "uint256"
        },
        {
          "internalType": "string",
          "name": "externalAddress",
          "type": "string"
        }
      ],
      "name": "addExternalAddressToProfile",
      "outputs": [],
      "stateMutability": "nonpayable",
      "type": "function"
    },
    {
      "inputs": [
        {
          "internalType": "string",
          "name": "networkType",
          "type": "string"
        }
      ],
      "name": "addExternalNetwork",
      "outputs": [],
      "stateMutability": "nonpayable",
      "type": "function"
    },
    {
      "inputs": [
        {
          "internalType": "uint256",
          "name": "profileID",
          "type": "uint256"
        },
        {
          "internalType": "uint256",
          "name": "networkID",
          "type": "uint256"
        }
      ],
      "name": "addExternalProfileMapping",
      "outputs": [],
      "stateMutability": "nonpayable",
      "type": "function"
    },
    {
      "inputs": [
        {
          "internalType": "uint256",
          "name": "profileID",
          "type": "uint256"
        }
      ],
      "name": "addProfileMapping",
      "outputs": [],
      "stateMutability": "nonpayable",
      "type": "function"
    },
    {
      "inputs": [
        {
          "internalType": "address",
          "name": "",
          "type": "address"
        }
      ],
      "name": "addressExternalProfileMapping",
      "outputs": [
        {
          "internalType": "uint256",
          "name": "profileID",
          "type": "uint256"
        },
        {
          "internalType": "uint256",
          "name": "networkID",
          "type": "uint256"
        }
      ],
      "stateMutability": "view",
      "type": "function"
    },
    {
      "inputs": [
        {
          "internalType": "address",
          "name": "",
          "type": "address"
        }
      ],
      "name": "addressProfileMapping",
      "outputs": [
        {
          "internalType": "uint256",
          "name": "",
          "type": "uint256"
        }
      ],
      "stateMutability": "view",
      "type": "function"
    },
    {
      "inputs": [
        {
          "internalType": "address",
          "name": "",
          "type": "address"
        }
      ],
      "name": "addressProfilePendingMapping",
      "outputs": [
        {
          "internalType": "uint256",
          "name": "",
          "type": "uint256"
        }
      ],
      "stateMutability": "view",
      "type": "function"
    },
    {
      "inputs": [
        {
          "internalType": "string",
          "name": "identityID",
          "type": "string"
        }
      ],
      "name": "createProfile",
      "outputs": [],
      "stateMutability": "nonpayable",
      "type": "function"
    },
    {
      "inputs": [
        {
          "internalType": "string",
          "name": "identityID",
          "type": "string"
        },
        {
          "internalType": "string[]",
          "name": "tags",
          "type": "string[]"
        },
        {
          "internalType": "uint256",
          "name": "deadline",
          "type": "uint256"
        },
        {
          "internalType": "uint8",
          "name": "v",
          "type": "uint8"
        },
        {
          "internalType": "bytes32",
          "name": "r",
          "type": "bytes32"
        },
        {
          "internalType": "bytes32",
          "name": "s",
          "type": "bytes32"
        }
      ],
      "name": "createProfileWithTags",
      "outputs": [],
      "stateMutability": "nonpayable",
      "type": "function"
    },
    {
      "inputs": [
        {
          "internalType": "uint256",
          "name": "",
          "type": "uint256"
        },
        {
          "internalType": "uint256",
          "name": "",
          "type": "uint256"
        }
      ],
      "name": "externalAddressProfileMapping",
      "outputs": [
        {
          "internalType": "string",
          "name": "addressOrPubKey",
          "type": "string"
        },
        {
          "internalType": "uint256",
          "name": "networkID",
          "type": "uint256"
        }
      ],
      "stateMutability": "view",
      "type": "function"
    },
    {
      "inputs": [
        {
          "internalType": "uint256",
          "name": "",
          "type": "uint256"
        }
      ],
      "name": "externalNetworkEnableMapping",
      "outputs": [
        {
          "internalType": "bool",
          "name": "",
          "type": "bool"
        }
      ],
      "stateMutability": "view",
      "type": "function"
    },
    {
      "inputs": [
        {
          "internalType": "uint256",
          "name": "profileID",
          "type": "uint256"
        }
      ],
      "name": "getAddressNumberfromProfile",
      "outputs": [
        {
          "internalType": "uint256",
          "name": "addressNumber",
          "type": "uint256"
        }
      ],
      "stateMutability": "view",
      "type": "function"
    },
    {
      "inputs": [],
      "name": "getAllEnabledNetworkIDs",
      "outputs": [
        {
          "internalType": "uint256[]",
          "name": "",
          "type": "uint256[]"
        }
      ],
      "stateMutability": "view",
      "type": "function"
    },
    {
      "inputs": [
        {
          "internalType": "uint256",
          "name": "profileID",
          "type": "uint256"
        }
      ],
      "name": "getContentID",
      "outputs": [
        {
          "internalType": "string",
          "name": "identityID",
          "type": "string"
        }
      ],
      "stateMutability": "view",
      "type": "function"
    },
    {
      "inputs": [
        {
          "internalType": "uint256",
          "name": "profileID",
          "type": "uint256"
        }
      ],
      "name": "getExternalAddressNumberfromProfile",
      "outputs": [
        {
          "internalType": "uint256",
          "name": "addressNumber",
          "type": "uint256"
        }
      ],
      "stateMutability": "view",
      "type": "function"
    },
    {
      "inputs": [
        {
          "internalType": "address",
          "name": "owner",
          "type": "address"
        }
      ],
      "name": "getProfilefromAddress",
      "outputs": [
        {
          "components": [
            {
              "internalType": "string",
              "name": "identityID",
              "type": "string"
            }
          ],
          "internalType": "struct ProfileContractUpgradeable.Profile",
          "name": "",
          "type": "tuple"
        }
      ],
      "stateMutability": "view",
      "type": "function"
    },
    {
      "inputs": [
        {
          "internalType": "address",
          "name": "owner",
          "type": "address"
        }
      ],
      "name": "getProfilefromAddressV2",
      "outputs": [
        {
          "internalType": "uint256",
          "name": "_profileID",
          "type": "uint256"
        },
        {
          "components": [
            {
              "internalType": "string",
              "name": "identityID",
              "type": "string"
            }
          ],
          "internalType": "struct ProfileContractUpgradeable.Profile",
          "name": "",
          "type": "tuple"
        }
      ],
      "stateMutability": "view",
      "type": "function"
    },
    {
      "inputs": [
        {
          "internalType": "uint256",
          "name": "profileID",
          "type": "uint256"
        }
      ],
      "name": "getProfilefromID",
      "outputs": [
        {
          "components": [
            {
              "internalType": "string",
              "name": "identityID",
              "type": "string"
            }
          ],
          "internalType": "struct ProfileContractUpgradeable.Profile",
          "name": "",
          "type": "tuple"
        }
      ],
      "stateMutability": "view",
      "type": "function"
    },
    {
      "inputs": [
        {
          "internalType": "uint256",
          "name": "limit",
          "type": "uint256"
        },
        {
          "internalType": "uint256",
          "name": "skip",
          "type": "uint256"
        }
      ],
      "name": "getProfiles",
      "outputs": [
        {
          "components": [
            {
              "internalType": "string",
              "name": "identityID",
              "type": "string"
            }
          ],
          "internalType": "struct ProfileContractUpgradeable.Profile[]",
          "name": "",
          "type": "tuple[]"
        }
      ],
      "stateMutability": "view",
      "type": "function"
    },
    {
      "inputs": [],
      "name": "getProfilesCount",
      "outputs": [
        {
          "internalType": "uint256",
          "name": "count",
          "type": "uint256"
        }
      ],
      "stateMutability": "view",
      "type": "function"
    },
    {
      "inputs": [
        {
          "internalType": "bytes32",
          "name": "role",
          "type": "bytes32"
        }
      ],
      "name": "getRoleAdmin",
      "outputs": [
        {
          "internalType": "bytes32",
          "name": "",
          "type": "bytes32"
        }
      ],
      "stateMutability": "view",
      "type": "function"
    },
    {
      "inputs": [],
      "name": "getSupportedNetworkListLength",
      "outputs": [
        {
          "internalType": "uint256",
          "name": "",
          "type": "uint256"
        }
      ],
      "stateMutability": "view",
      "type": "function"
    },
    {
      "inputs": [
        {
          "internalType": "uint256",
          "name": "networkID",
          "type": "uint256"
        }
      ],
      "name": "getSupportedNetworkType",
      "outputs": [
        {
          "internalType": "string",
          "name": "",
          "type": "string"
        }
      ],
      "stateMutability": "view",
      "type": "function"
    },
    {
      "inputs": [
        {
          "internalType": "uint256",
          "name": "limit",
          "type": "uint256"
        },
        {
          "internalType": "uint256",
          "name": "skip",
          "type": "uint256"
        }
      ],
      "name": "getSupportedNetworks",
      "outputs": [
        {
          "internalType": "string[]",
          "name": "",
          "type": "string[]"
        }
      ],
      "stateMutability": "view",
      "type": "function"
    },
    {
      "inputs": [
        {
          "internalType": "bytes32",
          "name": "role",
          "type": "bytes32"
        },
        {
          "internalType": "address",
          "name": "account",
          "type": "address"
        }
      ],
      "name": "grantRole",
      "outputs": [],
      "stateMutability": "nonpayable",
      "type": "function"
    },
    {
      "inputs": [
        {
          "internalType": "bytes32",
          "name": "role",
          "type": "bytes32"
        },
        {
          "internalType": "address",
          "name": "account",
          "type": "address"
        }
      ],
      "name": "hasRole",
      "outputs": [
        {
          "internalType": "bool",
          "name": "",
          "type": "bool"
        }
      ],
      "stateMutability": "view",
      "type": "function"
    },
    {
      "inputs": [
        {
          "internalType": "address",
          "name": "forwarder",
          "type": "address"
        }
      ],
      "name": "initialize",
      "outputs": [],
      "stateMutability": "nonpayable",
      "type": "function"
    },
    {
      "inputs": [
        {
          "internalType": "address",
          "name": "forwarder",
          "type": "address"
        }
      ],
      "name": "isTrustedForwarder",
      "outputs": [
        {
          "internalType": "bool",
          "name": "",
          "type": "bool"
        }
      ],
      "stateMutability": "view",
      "type": "function"
    },
    {
      "inputs": [
        {
          "internalType": "uint256",
          "name": "",
          "type": "uint256"
        },
        {
          "internalType": "uint256",
          "name": "",
          "type": "uint256"
        }
      ],
      "name": "profileAddressMapping",
      "outputs": [
        {
          "internalType": "address",
          "name": "",
          "type": "address"
        }
      ],
      "stateMutability": "view",
      "type": "function"
    },
    {
      "inputs": [
        {
          "internalType": "uint256",
          "name": "",
          "type": "uint256"
        },
        {
          "internalType": "uint256",
          "name": "",
          "type": "uint256"
        }
      ],
      "name": "profileManagerMapping",
      "outputs": [
        {
          "internalType": "address",
          "name": "",
          "type": "address"
        }
      ],
      "stateMutability": "view",
      "type": "function"
    },
    {
      "inputs": [
        {
          "internalType": "uint256",
          "name": "",
          "type": "uint256"
        }
      ],
      "name": "profiles",
      "outputs": [
        {
          "internalType": "string",
          "name": "identityID",
          "type": "string"
        }
      ],
      "stateMutability": "view",
      "type": "function"
    },
    {
      "inputs": [],
      "name": "registeredTagContractAddress",
      "outputs": [
        {
          "internalType": "address",
          "name": "",
          "type": "address"
        }
      ],
      "stateMutability": "view",
      "type": "function"
    },
    {
      "inputs": [
        {
          "internalType": "bytes32",
          "name": "role",
          "type": "bytes32"
        },
        {
          "internalType": "address",
          "name": "account",
          "type": "address"
        }
      ],
      "name": "renounceRole",
      "outputs": [],
      "stateMutability": "nonpayable",
      "type": "function"
    },
    {
      "inputs": [
        {
          "internalType": "bytes32",
          "name": "role",
          "type": "bytes32"
        },
        {
          "internalType": "address",
          "name": "account",
          "type": "address"
        }
      ],
      "name": "revokeRole",
      "outputs": [],
      "stateMutability": "nonpayable",
      "type": "function"
    },
    {
      "inputs": [
        {
          "internalType": "uint256",
          "name": "networkID",
          "type": "uint256"
        },
        {
          "internalType": "bool",
          "name": "state",
          "type": "bool"
        }
      ],
      "name": "setExternalNetworkState",
      "outputs": [],
      "stateMutability": "nonpayable",
      "type": "function"
    },
    {
      "inputs": [
        {
          "internalType": "address",
          "name": "tagContractAddress",
          "type": "address"
        }
      ],
      "name": "setTagContract",
      "outputs": [],
      "stateMutability": "nonpayable",
      "type": "function"
    },
    {
      "inputs": [
        {
          "internalType": "uint256",
          "name": "",
          "type": "uint256"
        }
      ],
      "name": "supportedExternalNetworks",
      "outputs": [
        {
          "internalType": "string",
          "name": "",
          "type": "string"
        }
      ],
      "stateMutability": "view",
      "type": "function"
    },
    {
      "inputs": [
        {
          "internalType": "bytes4",
          "name": "interfaceId",
          "type": "bytes4"
        }
      ],
      "name": "supportsInterface",
      "outputs": [
        {
          "internalType": "bool",
          "name": "",
          "type": "bool"
        }
      ],
      "stateMutability": "view",
      "type": "function"
    },
    {
      "inputs": [],
      "name": "trustedForwarder",
      "outputs": [
        {
          "internalType": "address",
          "name": "",
          "type": "address"
        }
      ],
      "stateMutability": "view",
      "type": "function"
    },
    {
      "inputs": [
        {
          "internalType": "string",
          "name": "identityID",
          "type": "string"
        }
      ],
      "name": "updateProfile",
      "outputs": [],
      "stateMutability": "nonpayable",
      "type": "function"
    },
    {
      "inputs": [
        {
          "internalType": "string",
          "name": "identityID",
          "type": "string"
        },
        {
          "internalType": "string[]",
          "name": "tags",
          "type": "string[]"
        },
        {
          "internalType": "uint256",
          "name": "deadline",
          "type": "uint256"
        },
        {
          "internalType": "uint8",
          "name": "v",
          "type": "uint8"
        },
        {
          "internalType": "bytes32",
          "name": "r",
          "type": "bytes32"
        },
        {
          "internalType": "bytes32",
          "name": "s",
          "type": "bytes32"
        }
      ],
      "name": "updateProfileWithTags",
      "outputs": [],
      "stateMutability": "nonpayable",
      "type": "function"
    },
    {
      "inputs": [],
      "name": "versionRecipient",
      "outputs": [
        {
          "internalType": "string",
          "name": "",
          "type": "string"
        }
      ],
      "stateMutability": "view",
      "type": "function"
    }
  ],
  "bytecode": "0x608060405234801561001057600080fd5b5061565a80620000216000396000f3fe608060405234801561001057600080fd5b506004361061027e5760003560e01c806391d148541161015c578063c36fe3d6116100ce578063d9b916f111610087578063d9b916f114610852578063db59eb9d14610882578063e9c265181461089e578063edc9e080146108bc578063f3ee2e70146108ec578063fa6d37d01461091c5761027e565b8063c36fe3d614610782578063c4d66de8146107b2578063c6d5f193146107ce578063c95514f3146107ea578063cb3abd811461081a578063d547741f146108365761027e565b8063a4d9bf6e11610120578063a4d9bf6e14610673578063aa505d6d146106a3578063b6377950146106d4578063ba546cbf14610704578063bc2db3db14610734578063c0a43129146107525761027e565b806391d14854146105bd5780639ca4f5e2146105ed5780639e3d4c7c14610609578063a0e1691c14610639578063a217fddf146106555761027e565b806336568abe116101f55780636e3fda79116101b95780636e3fda79146104d5578063715f849e146104f157806372768f8c14610521578063736dc6e5146105515780637da0a87714610581578063851905041461059f5761027e565b806336568abe14610433578063486ff0cd1461044f5780634aa0e3e61461046d578063572b6c051461048957806369f59520146104b95761027e565b80631d511922116102475780631d5119221461034c578063248a9ca31461037d5780632a5fa97b146103ad5780632f2ff15d146103cb578063334c3f0e146103e7578063336a16e0146104035761027e565b80629299e31461028357806301ffc9a71461029f5780630af6ea3b146102cf5780630c3d2227146102ff578063162c6b1a1461031b575b600080fd5b61029d60048036038101906102989190614698565b61093a565b005b6102b960048036038101906102b4919061466f565b610c43565b6040516102c69190614d73565b60405180910390f35b6102e960048036038101906102e49190614792565b610cbd565b6040516102f69190614da9565b60405180910390f35b6103196004803603810190610314919061484b565b610d69565b005b610335600480360381019061033091906145a5565b610f9a565b604051610343929190614f4f565b60405180910390f35b610366600480360381019061036191906145a5565b6110b3565b604051610374929190614f7f565b60405180910390f35b6103976004803603810190610392919061460a565b6110d7565b6040516103a49190614d8e565b60405180910390f35b6103b56110f7565b6040516103c29190614edb565b60405180910390f35b6103e560048036038101906103e09190614633565b611104565b005b61040160048036038101906103fc9190614698565b61112d565b005b61041d6004803603810190610418919061484b565b611347565b60405161042a9190614c83565b60405180910390f35b61044d60048036038101906104489190614633565b611395565b005b610457611418565b6040516104649190614da9565b60405180910390f35b610487600480360381019061048291906146d9565b6114a6565b005b6104a3600480360381019061049e91906145a5565b61175c565b6040516104b09190614d73565b60405180910390f35b6104d360048036038101906104ce91906145ce565b6117b6565b005b6104ef60048036038101906104ea9190614698565b611b48565b005b61050b6004803603810190610506919061484b565b611e20565b6040516105189190614c9e565b60405180910390f35b61053b6004803603810190610536919061484b565b611fdf565b6040516105489190614c83565b60405180910390f35b61056b60048036038101906105669190614792565b61202d565b6040516105789190614edb565b60405180910390f35b6105896120eb565b6040516105969190614c83565b60405180910390f35b6105a7612115565b6040516105b49190614edb565b60405180910390f35b6105d760048036038101906105d29190614633565b612122565b6040516105e49190614d73565b60405180910390f35b610607600480360381019061060291906147bb565b61218d565b005b610623600480360381019061061e9190614792565b61233e565b6040516106309190614da9565b60405180910390f35b610653600480360381019061064e91906146d9565b6124e4565b005b61065d612889565b60405161066a9190614d8e565b60405180910390f35b61068d60048036038101906106889190614792565b612890565b60405161069a9190614eb9565b60405180910390f35b6106bd60048036038101906106b8919061484b565b612a32565b6040516106cb929190614dcb565b60405180910390f35b6106ee60048036038101906106e991906145a5565b612afb565b6040516106fb9190614eb9565b60405180910390f35b61071e6004803603810190610719919061484b565b612c0c565b60405161072b9190614d2f565b60405180910390f35b61073c612de5565b6040516107499190614c83565b60405180910390f35b61076c600480360381019061076791906145a5565b612e0b565b6040516107799190614edb565b60405180910390f35b61079c60048036038101906107979190614792565b612e23565b6040516107a99190614da9565b60405180910390f35b6107cc60048036038101906107c791906145a5565b612ed5565b005b6107e860048036038101906107e391906145a5565b61305c565b005b61080460048036038101906107ff9190614792565b613149565b6040516108119190614d73565b60405180910390f35b610834600480360381019061082f9190614792565b613169565b005b610850600480360381019061084b9190614633565b6132ce565b005b61086c600480360381019061086791906145a5565b6132f7565b6040516108799190614edb565b60405180910390f35b61089c600480360381019061089791906147f7565b61330f565b005b6108a66135ba565b6040516108b39190614d8e565b60405180910390f35b6108d660048036038101906108d19190614792565b6135de565b6040516108e39190614da9565b60405180910390f35b61090660048036038101906109019190614792565b6136c0565b6040516109139190614edb565b60405180910390f35b61092461377e565b6040516109319190614d51565b60405180910390f35b600061094c610947613921565b613930565b90506109f6609f60008381526020019081526020016000208054806020026020016040519081016040528092919081815260200182805480156109e457602002820191906000526020600020905b8160009054906101000a900473ffffffffffffffffffffffffffffffffffffffff1673ffffffffffffffffffffffffffffffffffffffff168152602001906001019080831161099a575b50505050506109f1613921565b613a1d565b6040518060400160405280600d81526020017f4e6f205065726d697373696f6e0000000000000000000000000000000000000081525090610a6d576040517f08c379a0000000000000000000000000000000000000000000000000000000008152600401610a649190614da9565b60405180910390fd5b506000609a610a86600184613acb90919063ffffffff16565b81548110610abd577f4e487b7100000000000000000000000000000000000000000000000000000000600052603260045260246000fd5b90600052602060002001604051806020016040529081600082018054610ae2906152e8565b80601f0160208091040260200160405190810160405280929190818152602001828054610b0e906152e8565b8015610b5b5780601f10610b3057610100808354040283529160200191610b5b565b820191906000526020600020905b815481529060010190602001808311610b3e57829003601f168201915b505050505081525050905082816000018190525080609a610b86600185613acb90919063ffffffff16565b81548110610bbd577f4e487b7100000000000000000000000000000000000000000000000000000000600052603260045260246000fd5b906000526020600020016000820151816000019080519060200190610be3929190614359565b50905050610bef613921565b73ffffffffffffffffffffffffffffffffffffffff167f94e8eabc60c6a8b027e24462babdca4a634375aba664c8c9c8028fca0348d8338385604051610c36929190614f1f565b60405180910390a2505050565b60007f7965db0b000000000000000000000000000000000000000000000000000000007bffffffffffffffffffffffffffffffffffffffffffffffffffffffff1916827bffffffffffffffffffffffffffffffffffffffffffffffffffffffff19161480610cb65750610cb582613ae1565b5b9050919050565b609b8181548110610ccd57600080fd5b906000526020600020016000915090508054610ce8906152e8565b80601f0160208091040260200160405190810160405280929190818152602001828054610d14906152e8565b8015610d615780601f10610d3657610100808354040283529160200191610d61565b820191906000526020600020905b815481529060010190602001808311610d4457829003601f168201915b505050505081565b60a2600082815260200190815260200160002060009054906101000a900460ff166040518060400160405280601581526020017f4e6574776f726b204e6f7420417661696c61626c65000000000000000000000081525090610e01576040517f08c379a0000000000000000000000000000000000000000000000000000000008152600401610df89190614da9565b60405180910390fd5b506000609d6000610e10613921565b73ffffffffffffffffffffffffffffffffffffffff1673ffffffffffffffffffffffffffffffffffffffff16815260200190815260200160002060010154146040518060400160405280600e81526020017f4d617070696e672045786973747300000000000000000000000000000000000081525090610ec6576040517f08c379a0000000000000000000000000000000000000000000000000000000008152600401610ebd9190614da9565b60405180910390fd5b506000604051806040016040528084815260200183815250905080609d6000610eed613921565b73ffffffffffffffffffffffffffffffffffffffff1673ffffffffffffffffffffffffffffffffffffffff1681526020019081526020016000206000820151816000015560208201518160010155905050610f46613921565b73ffffffffffffffffffffffffffffffffffffffff167f9f5ffcbadcb5f581c806a3c3dd6ada8bd8dd0218b751d2132a50bedf05447dce8484604051610f8d929190614f7f565b60405180910390a2505050565b6000610fa46143df565b6000610faf84613930565b905080609a610fc8600184613acb90919063ffffffff16565b81548110610fff577f4e487b7100000000000000000000000000000000000000000000000000000000600052603260045260246000fd5b9060005260206000200180604051806020016040529081600082018054611025906152e8565b80601f0160208091040260200160405190810160405280929190818152602001828054611051906152e8565b801561109e5780601f106110735761010080835404028352916020019161109e565b820191906000526020600020905b81548152906001019060200180831161108157829003601f168201915b50505050508152505090509250925050915091565b609d6020528060005260406000206000915090508060000154908060010154905082565b600060656000838152602001908152602001600020600101549050919050565b6000609a80549050905090565b61110d826110d7565b61111e81611119613921565b613b4b565b6111288383613be8565b505050565b61113d611138613921565b613cc9565b60006040518060200160405280838152509050609a81908060018154018082558091505060019003906000526020600020016000909190919091506000820151816000019080519060200190611194929190614359565b505050609a80549050609c60006111a9613921565b73ffffffffffffffffffffffffffffffffffffffff1673ffffffffffffffffffffffffffffffffffffffff1681526020019081526020016000208190555060a06000609a805490508152602001908152602001600020611207613921565b9080600181540180825580915050600190039060005260206000200160009091909190916101000a81548173ffffffffffffffffffffffffffffffffffffffff021916908373ffffffffffffffffffffffffffffffffffffffff160217905550609f6000609a805490508152602001908152602001600020611287613921565b9080600181540180825580915050600190039060005260206000200160009091909190916101000a81548173ffffffffffffffffffffffffffffffffffffffff021916908373ffffffffffffffffffffffffffffffffffffffff1602179055506112ef613921565b73ffffffffffffffffffffffffffffffffffffffff167fe46f9e03db1de770148cdae71298da4361beede5c47a3502dc218b657e12f35c609a805490508460405161133b929190614f1f565b60405180910390a25050565b609f602052816000526040600020818154811061136357600080fd5b906000526020600020016000915091509054906101000a900473ffffffffffffffffffffffffffffffffffffffff1681565b61139d613921565b73ffffffffffffffffffffffffffffffffffffffff168173ffffffffffffffffffffffffffffffffffffffff161461140a576040517f08c379a000000000000000000000000000000000000000000000000000000000815260040161140190614e99565b60405180910390fd5b6114148282613d87565b5050565b60988054611425906152e8565b80601f0160208091040260200160405190810160405280929190818152602001828054611451906152e8565b801561149e5780601f106114735761010080835404028352916020019161149e565b820191906000526020600020905b81548152906001019060200180831161148157829003601f168201915b505050505081565b6114b66114b1613921565b613cc9565b609960009054906101000a900473ffffffffffffffffffffffffffffffffffffffff1673ffffffffffffffffffffffffffffffffffffffff1663e0b0d71a8688878787876040518763ffffffff1660e01b815260040161151b96959493929190614cc0565b600060405180830381600087803b15801561153557600080fd5b505af1158015611549573d6000803e3d6000fd5b5050505060006040518060200160405280888152509050609a819080600181540180825580915050600190039060005260206000200160009091909190915060008201518160000190805190602001906115a4929190614359565b505050609a80549050609c60006115b9613921565b73ffffffffffffffffffffffffffffffffffffffff1673ffffffffffffffffffffffffffffffffffffffff1681526020019081526020016000208190555060a06000609a805490508152602001908152602001600020611617613921565b9080600181540180825580915050600190039060005260206000200160009091909190916101000a81548173ffffffffffffffffffffffffffffffffffffffff021916908373ffffffffffffffffffffffffffffffffffffffff160217905550609f6000609a805490508152602001908152602001600020611697613921565b9080600181540180825580915050600190039060005260206000200160009091909190916101000a81548173ffffffffffffffffffffffffffffffffffffffff021916908373ffffffffffffffffffffffffffffffffffffffff1602179055506116ff613921565b73ffffffffffffffffffffffffffffffffffffffff167fe46f9e03db1de770148cdae71298da4361beede5c47a3502dc218b657e12f35c609a805490508960405161174b929190614f1f565b60405180910390a250505050505050565b6000609760009054906101000a900473ffffffffffffffffffffffffffffffffffffffff1673ffffffffffffffffffffffffffffffffffffffff168273ffffffffffffffffffffffffffffffffffffffff16149050919050565b60006117c86117c3613921565b613930565b9050611872609f600083815260200190815260200160002080548060200260200160405190810160405280929190818152602001828054801561186057602002820191906000526020600020905b8160009054906101000a900473ffffffffffffffffffffffffffffffffffffffff1673ffffffffffffffffffffffffffffffffffffffff1681526020019060010190808311611816575b505050505061186d613921565b613a1d565b6040518060400160405280600d81526020017f4e6f205065726d697373696f6e00000000000000000000000000000000000000815250906118e9576040517f08c379a00000000000000000000000000000000000000000000000000000000081526004016118e09190614da9565b60405180910390fd5b5080609e60008573ffffffffffffffffffffffffffffffffffffffff1673ffffffffffffffffffffffffffffffffffffffff16815260200190815260200160002054146040518060400160405280600a81526020017f4e6f204d617070696e6700000000000000000000000000000000000000000000815250906119a3576040517f08c379a000000000000000000000000000000000000000000000000000000000815260040161199a9190614da9565b60405180910390fd5b5060a06000828152602001908152602001600020839080600181540180825580915050600190039060005260206000200160009091909190916101000a81548173ffffffffffffffffffffffffffffffffffffffff021916908373ffffffffffffffffffffffffffffffffffffffff16021790555080609c60008573ffffffffffffffffffffffffffffffffffffffff1673ffffffffffffffffffffffffffffffffffffffff168152602001908152602001600020819055508115611ad757609f6000828152602001908152602001600020839080600181540180825580915050600190039060005260206000200160009091909190916101000a81548173ffffffffffffffffffffffffffffffffffffffff021916908373ffffffffffffffffffffffffffffffffffffffff1602179055505b8273ffffffffffffffffffffffffffffffffffffffff16611af6613921565b73ffffffffffffffffffffffffffffffffffffffff167f2445cc7d38ce452994b17c7ca7a13251e461a814b2f2ecff74cddcce970925c283604051611b3b9190614edb565b60405180910390a3505050565b611c23609b805480602002602001604051908101604052809291908181526020016000905b82821015611c19578382906000526020600020018054611b8c906152e8565b80601f0160208091040260200160405190810160405280929190818152602001828054611bb8906152e8565b8015611c055780601f10611bda57610100808354040283529160200191611c05565b820191906000526020600020905b815481529060010190602001808311611be857829003601f168201915b505050505081526020019060010190611b6d565b5050505082613e69565b156040518060400160405280600e81526020017f4e6574776f726b2045786973747300000000000000000000000000000000000081525090611c9b576040517f08c379a0000000000000000000000000000000000000000000000000000000008152600401611c929190614da9565b60405180910390fd5b50611ccd7f3b5d4cc60d3ec3516ee8ae083bd60934f6eb2a6c54b1229985c41bfb092b2603611cc8613921565b612122565b6040518060400160405280600d81526020017f4e6f205065726d697373696f6e0000000000000000000000000000000000000081525090611d44576040517f08c379a0000000000000000000000000000000000000000000000000000000008152600401611d3b9190614da9565b60405180910390fd5b5060006001611d51612115565b611d5b919061510d565b9050609b82908060018154018082558091505060019003906000526020600020016000909190919091509080519060200190611d98929190614359565b50600160a2600083815260200190815260200160002060006101000a81548160ff021916908315150217905550611dcd613921565b73ffffffffffffffffffffffffffffffffffffffff167f598c7ec50de10253589356578befa19fd76dcc28d1b6b2f8e780d94ed40348b08383604051611e14929190614dcb565b60405180910390a25050565b606060008367ffffffffffffffff811115611e64577f4e487b7100000000000000000000000000000000000000000000000000000000600052604160045260246000fd5b604051908082528060200260200182016040528015611e9757816020015b6060815260200190600190039081611e825790505b50905060005b84811015611fd457609b8185611eb3919061510d565b81548110611eea577f4e487b7100000000000000000000000000000000000000000000000000000000600052603260045260246000fd5b906000526020600020018054611eff906152e8565b80601f0160208091040260200160405190810160405280929190818152602001828054611f2b906152e8565b8015611f785780601f10611f4d57610100808354040283529160200191611f78565b820191906000526020600020905b815481529060010190602001808311611f5b57829003601f168201915b5050505050828281518110611fb6577f4e487b7100000000000000000000000000000000000000000000000000000000600052603260045260246000fd5b60200260200101819052508080611fcc9061534b565b915050611e9d565b508091505092915050565b60a06020528160005260406000208181548110611ffb57600080fd5b906000526020600020016000915091509054906101000a900473ffffffffffffffffffffffffffffffffffffffff1681565b6000808211801561205557506120526001609a80549050613ef290919063ffffffff16565b82105b6040518060400160405280600a81526020017f4e6f2050726f66696c6500000000000000000000000000000000000000000000815250906120cc576040517f08c379a00000000000000000000000000000000000000000000000000000000081526004016120c39190614da9565b60405180910390fd5b5060a16000838152602001908152602001600020805490509050919050565b6000609760009054906101000a900473ffffffffffffffffffffffffffffffffffffffff16905090565b6000609b80549050905090565b60006065600084815260200190815260200160002060000160008373ffffffffffffffffffffffffffffffffffffffff1673ffffffffffffffffffffffffffffffffffffffff16815260200190815260200160002060009054906101000a900460ff16905092915050565b612195612115565b82106040518060400160405280601581526020017f4e6574776f726b204e6f7420417661696c61626c6500000000000000000000008152509061220e576040517f08c379a00000000000000000000000000000000000000000000000000000000081526004016122059190614da9565b60405180910390fd5b506122407f3b5d4cc60d3ec3516ee8ae083bd60934f6eb2a6c54b1229985c41bfb092b260361223b613921565b612122565b6040518060400160405280600d81526020017f4e6f205065726d697373696f6e00000000000000000000000000000000000000815250906122b7576040517f08c379a00000000000000000000000000000000000000000000000000000000081526004016122ae9190614da9565b60405180910390fd5b508060a2600084815260200190815260200160002060006101000a81548160ff0219169083151502179055506122eb613921565b73ffffffffffffffffffffffffffffffffffffffff167f83c66cb4bc2d472b1f0b40444c8b40cf9f9a8c5156f617914f7f1da76200f5618383604051612332929190614ef6565b60405180910390a25050565b606060008211801561236757506123646001609a80549050613ef290919063ffffffff16565b82105b6040518060400160405280600a81526020017f4e6f2050726f66696c6500000000000000000000000000000000000000000000815250906123de576040517f08c379a00000000000000000000000000000000000000000000000000000000081526004016123d59190614da9565b60405180910390fd5b506000609a6123f7600185613acb90919063ffffffff16565b8154811061242e577f4e487b7100000000000000000000000000000000000000000000000000000000600052603260045260246000fd5b90600052602060002001604051806020016040529081600082018054612453906152e8565b80601f016020809104026020016040519081016040528092919081815260200182805461247f906152e8565b80156124cc5780601f106124a1576101008083540402835291602001916124cc565b820191906000526020600020905b8154815290600101906020018083116124af57829003601f168201915b50505050508152505090508060000151915050919050565b60006124f66124f1613921565b613930565b90506125a0609f600083815260200190815260200160002080548060200260200160405190810160405280929190818152602001828054801561258e57602002820191906000526020600020905b8160009054906101000a900473ffffffffffffffffffffffffffffffffffffffff1673ffffffffffffffffffffffffffffffffffffffff1681526020019060010190808311612544575b505050505061259b613921565b613a1d565b6040518060400160405280600d81526020017f4e6f205065726d697373696f6e0000000000000000000000000000000000000081525090612617576040517f08c379a000000000000000000000000000000000000000000000000000000000815260040161260e9190614da9565b60405180910390fd5b50609960009054906101000a900473ffffffffffffffffffffffffffffffffffffffff1673ffffffffffffffffffffffffffffffffffffffff1663e0b0d71a8789888888886040518763ffffffff1660e01b815260040161267d96959493929190614cc0565b600060405180830381600087803b15801561269757600080fd5b505af11580156126ab573d6000803e3d6000fd5b505050506000609a6126c7600184613acb90919063ffffffff16565b815481106126fe577f4e487b7100000000000000000000000000000000000000000000000000000000600052603260045260246000fd5b90600052602060002001604051806020016040529081600082018054612723906152e8565b80601f016020809104026020016040519081016040528092919081815260200182805461274f906152e8565b801561279c5780601f106127715761010080835404028352916020019161279c565b820191906000526020600020905b81548152906001019060200180831161277f57829003601f168201915b505050505081525050905087816000018190525080609a6127c7600185613acb90919063ffffffff16565b815481106127fe577f4e487b7100000000000000000000000000000000000000000000000000000000600052603260045260246000fd5b906000526020600020016000820151816000019080519060200190612824929190614359565b50905050612830613921565b73ffffffffffffffffffffffffffffffffffffffff167f94e8eabc60c6a8b027e24462babdca4a634375aba664c8c9c8028fca0348d833838a604051612877929190614f1f565b60405180910390a25050505050505050565b6000801b81565b6128986143df565b6000821180156128bf57506128bc6001609a80549050613ef290919063ffffffff16565b82105b6040518060400160405280600a81526020017f4e6f2050726f66696c650000000000000000000000000000000000000000000081525090612936576040517f08c379a000000000000000000000000000000000000000000000000000000000815260040161292d9190614da9565b60405180910390fd5b50609a61294d600184613acb90919063ffffffff16565b81548110612984577f4e487b7100000000000000000000000000000000000000000000000000000000600052603260045260246000fd5b906000526020600020016040518060200160405290816000820180546129a9906152e8565b80601f01602080910402602001604051908101604052809291908181526020018280546129d5906152e8565b8015612a225780601f106129f757610100808354040283529160200191612a22565b820191906000526020600020905b815481529060010190602001808311612a0557829003601f168201915b5050505050815250509050919050565b60a16020528160005260406000208181548110612a4e57600080fd5b906000526020600020906002020160009150915050806000018054612a72906152e8565b80601f0160208091040260200160405190810160405280929190818152602001828054612a9e906152e8565b8015612aeb5780601f10612ac057610100808354040283529160200191612aeb565b820191906000526020600020905b815481529060010190602001808311612ace57829003601f168201915b5050505050908060010154905082565b612b036143df565b6000612b0e83613930565b9050609a612b26600183613acb90919063ffffffff16565b81548110612b5d577f4e487b7100000000000000000000000000000000000000000000000000000000600052603260045260246000fd5b90600052602060002001604051806020016040529081600082018054612b82906152e8565b80601f0160208091040260200160405190810160405280929190818152602001828054612bae906152e8565b8015612bfb5780601f10612bd057610100808354040283529160200191612bfb565b820191906000526020600020905b815481529060010190602001808311612bde57829003601f168201915b505050505081525050915050919050565b606060008367ffffffffffffffff811115612c50577f4e487b7100000000000000000000000000000000000000000000000000000000600052604160045260246000fd5b604051908082528060200260200182016040528015612c8957816020015b612c766143df565b815260200190600190039081612c6e5790505b50905060005b84811015612dda57609a8185612ca5919061510d565b81548110612cdc577f4e487b7100000000000000000000000000000000000000000000000000000000600052603260045260246000fd5b90600052602060002001604051806020016040529081600082018054612d01906152e8565b80601f0160208091040260200160405190810160405280929190818152602001828054612d2d906152e8565b8015612d7a5780601f10612d4f57610100808354040283529160200191612d7a565b820191906000526020600020905b815481529060010190602001808311612d5d57829003601f168201915b505050505081525050828281518110612dbc577f4e487b7100000000000000000000000000000000000000000000000000000000600052603260045260246000fd5b60200260200101819052508080612dd29061534b565b915050612c8f565b508091505092915050565b609960009054906101000a900473ffffffffffffffffffffffffffffffffffffffff1681565b609c6020528060005260406000206000915090505481565b609a8181548110612e3357600080fd5b90600052602060002001600091509050806000018054612e52906152e8565b80601f0160208091040260200160405190810160405280929190818152602001828054612e7e906152e8565b8015612ecb5780601f10612ea057610100808354040283529160200191612ecb565b820191906000526020600020905b815481529060010190602001808311612eae57829003601f168201915b5050505050905081565b600060019054906101000a900460ff16612efd5760008054906101000a900460ff1615612f06565b612f05613f08565b5b612f45576040517f08c379a0000000000000000000000000000000000000000000000000000000008152600401612f3c90614e59565b60405180910390fd5b60008060019054906101000a900460ff161590508015612f95576001600060016101000a81548160ff02191690831515021790555060016000806101000a81548160ff0219169083151502179055505b6040518060400160405280600581526020017f322e322e3000000000000000000000000000000000000000000000000000000081525060989080519060200190612fe0929190614359565b50612fe9613f19565b612ff282613f6a565b6130066000801b613001613921565b613fae565b6130377f3b5d4cc60d3ec3516ee8ae083bd60934f6eb2a6c54b1229985c41bfb092b2603613032613921565b613fae565b80156130585760008060016101000a81548160ff0219169083151502179055505b5050565b61308d7f3b5d4cc60d3ec3516ee8ae083bd60934f6eb2a6c54b1229985c41bfb092b2603613088613921565b612122565b6040518060400160405280600d81526020017f4e6f205065726d697373696f6e0000000000000000000000000000000000000081525090613104576040517f08c379a00000000000000000000000000000000000000000000000000000000081526004016130fb9190614da9565b60405180910390fd5b5080609960006101000a81548173ffffffffffffffffffffffffffffffffffffffff021916908373ffffffffffffffffffffffffffffffffffffffff16021790555050565b60a26020528060005260406000206000915054906101000a900460ff1681565b6000609e6000613177613921565b73ffffffffffffffffffffffffffffffffffffffff1673ffffffffffffffffffffffffffffffffffffffff16815260200190815260200160002054146040518060400160405280600e81526020017f4d617070696e67204578697374730000000000000000000000000000000000008152509061322a576040517f08c379a00000000000000000000000000000000000000000000000000000000081526004016132219190614da9565b60405180910390fd5b5080609e6000613238613921565b73ffffffffffffffffffffffffffffffffffffffff1673ffffffffffffffffffffffffffffffffffffffff1681526020019081526020016000208190555061327e613921565b73ffffffffffffffffffffffffffffffffffffffff167f0afef2e019ef8e3447716adc29d2572385fa7dae156fa2130042242e2d94fe47826040516132c39190614edb565b60405180910390a250565b6132d7826110d7565b6132e8816132e3613921565b613b4b565b6132f28383613d87565b505050565b609e6020528060005260406000206000915090505481565b60a2600083815260200190815260200160002060009054906101000a900460ff166040518060400160405280601581526020017f4e6574776f726b204e6f7420417661696c61626c650000000000000000000000815250906133a7576040517f08c379a000000000000000000000000000000000000000000000000000000000815260040161339e9190614da9565b60405180910390fd5b5060006133ba6133b5613921565b613930565b9050613464609f600083815260200190815260200160002080548060200260200160405190810160405280929190818152602001828054801561345257602002820191906000526020600020905b8160009054906101000a900473ffffffffffffffffffffffffffffffffffffffff1673ffffffffffffffffffffffffffffffffffffffff1681526020019060010190808311613408575b505050505061345f613921565b613a1d565b6040518060400160405280600d81526020017f4e6f205065726d697373696f6e00000000000000000000000000000000000000815250906134db576040517f08c379a00000000000000000000000000000000000000000000000000000000081526004016134d29190614da9565b60405180910390fd5b506000604051806040016040528084815260200185815250905060a16000838152602001908152602001600020819080600181540180825580915050600190039060005260206000209060020201600090919091909150600082015181600001908051906020019061354e929190614359565b50602082015181600101555050613563613921565b73ffffffffffffffffffffffffffffffffffffffff167fb1cd7e7ed5b6297ca0f9c12a9fee34b8dbef2547a1ec470f4259f3f39d5ed5ca8486856040516135ac93929190614dfb565b60405180910390a250505050565b7f3b5d4cc60d3ec3516ee8ae083bd60934f6eb2a6c54b1229985c41bfb092b260381565b6060609b6001836135ef91906151bd565b81548110613626577f4e487b7100000000000000000000000000000000000000000000000000000000600052603260045260246000fd5b90600052602060002001805461363b906152e8565b80601f0160208091040260200160405190810160405280929190818152602001828054613667906152e8565b80156136b45780601f10613689576101008083540402835291602001916136b4565b820191906000526020600020905b81548152906001019060200180831161369757829003601f168201915b50505050509050919050565b600080821180156136e857506136e56001609a80549050613ef290919063ffffffff16565b82105b6040518060400160405280600a81526020017f4e6f2050726f66696c65000000000000000000000000000000000000000000008152509061375f576040517f08c379a00000000000000000000000000000000000000000000000000000000081526004016137569190614da9565b60405180910390fd5b5060a06000838152602001908152602001600020805490509050919050565b6060600061378a612115565b90506000805b828110156137ed5760a260006001836137a9919061510d565b815260200190815260200160002060009054906101000a900460ff16156137da576001826137d7919061510d565b91505b80806137e59061534b565b915050613790565b5060008167ffffffffffffffff811115613830577f4e487b7100000000000000000000000000000000000000000000000000000000600052604160045260246000fd5b60405190808252806020026020018201604052801561385e5781602001602082028036833780820191505090505b5090506000915060005b838110156139175760a26000600183613881919061510d565b815260200190815260200160002060009054906101000a900460ff1615613904576001816138af919061510d565b8284815181106138e8577f4e487b7100000000000000000000000000000000000000000000000000000000600052603260045260246000fd5b602002602001018181525050600183613901919061510d565b92505b808061390f9061534b565b915050613868565b5080935050505090565b600061392b613fbc565b905090565b600080609c60008473ffffffffffffffffffffffffffffffffffffffff1673ffffffffffffffffffffffffffffffffffffffff16815260200190815260200160002054905060008111801561399c57506139996001609a80549050613ef290919063ffffffff16565b81105b6040518060400160405280600a81526020017f4e6f2050726f66696c650000000000000000000000000000000000000000000081525090613a13576040517f08c379a0000000000000000000000000000000000000000000000000000000008152600401613a0a9190614da9565b60405180910390fd5b5080915050919050565b600080600090505b8351811015613abf578273ffffffffffffffffffffffffffffffffffffffff16848281518110613a7e577f4e487b7100000000000000000000000000000000000000000000000000000000600052603260045260246000fd5b602002602001015173ffffffffffffffffffffffffffffffffffffffff161415613aac576001915050613ac5565b8080613ab79061534b565b915050613a25565b50600090505b92915050565b60008183613ad991906151bd565b905092915050565b60007f01ffc9a7000000000000000000000000000000000000000000000000000000007bffffffffffffffffffffffffffffffffffffffffffffffffffffffff1916827bffffffffffffffffffffffffffffffffffffffffffffffffffffffff1916149050919050565b613b558282612122565b613be457613b7a8173ffffffffffffffffffffffffffffffffffffffff166014613ff3565b613b888360001c6020613ff3565b604051602001613b99929190614c49565b6040516020818303038152906040526040517f08c379a0000000000000000000000000000000000000000000000000000000008152600401613bdb9190614da9565b60405180910390fd5b5050565b613bf28282612122565b613cc55760016065600084815260200190815260200160002060000160008373ffffffffffffffffffffffffffffffffffffffff1673ffffffffffffffffffffffffffffffffffffffff16815260200190815260200160002060006101000a81548160ff021916908315150217905550613c6a613921565b73ffffffffffffffffffffffffffffffffffffffff168173ffffffffffffffffffffffffffffffffffffffff16837f2f8788117e7eff1d82e926ec794901d17c78024a50270940304540a733656f0d60405160405180910390a45b5050565b6000609c60008373ffffffffffffffffffffffffffffffffffffffff1673ffffffffffffffffffffffffffffffffffffffff16815260200190815260200160002054146040518060400160405280600e81526020017f50726f66696c652045786973747300000000000000000000000000000000000081525090613d83576040517f08c379a0000000000000000000000000000000000000000000000000000000008152600401613d7a9190614da9565b60405180910390fd5b5050565b613d918282612122565b15613e655760006065600084815260200190815260200160002060000160008373ffffffffffffffffffffffffffffffffffffffff1673ffffffffffffffffffffffffffffffffffffffff16815260200190815260200160002060006101000a81548160ff021916908315150217905550613e0a613921565b73ffffffffffffffffffffffffffffffffffffffff168173ffffffffffffffffffffffffffffffffffffffff16837ff6391f5c32d9c69d2a47ea670b442974b53935d1edc7fd64eb21e047a839171b60405160405180910390a45b5050565b600080600090505b8351811015613ee657613ec4848281518110613eb6577f4e487b7100000000000000000000000000000000000000000000000000000000600052603260045260246000fd5b6020026020010151846142ed565b15613ed3576001915050613eec565b8080613ede9061534b565b915050613e71565b50600090505b92915050565b60008183613f00919061510d565b905092915050565b6000613f1330614346565b15905090565b600060019054906101000a900460ff16613f68576040517f08c379a0000000000000000000000000000000000000000000000000000000008152600401613f5f90614e79565b60405180910390fd5b565b80609760006101000a81548173ffffffffffffffffffffffffffffffffffffffff021916908373ffffffffffffffffffffffffffffffffffffffff16021790555050565b613fb88282613be8565b5050565b60006014600036905010158015613fd85750613fd73361175c565b5b15613fec57601436033560601c9050613ff0565b3390505b90565b6060600060028360026140069190615163565b614010919061510d565b67ffffffffffffffff81111561404f577f4e487b7100000000000000000000000000000000000000000000000000000000600052604160045260246000fd5b6040519080825280601f01601f1916602001820160405280156140815781602001600182028036833780820191505090505b5090507f3000000000000000000000000000000000000000000000000000000000000000816000815181106140df577f4e487b7100000000000000000000000000000000000000000000000000000000600052603260045260246000fd5b60200101907effffffffffffffffffffffffffffffffffffffffffffffffffffffffffffff1916908160001a9053507f780000000000000000000000000000000000000000000000000000000000000081600181518110614169577f4e487b7100000000000000000000000000000000000000000000000000000000600052603260045260246000fd5b60200101907effffffffffffffffffffffffffffffffffffffffffffffffffffffffffffff1916908160001a905350600060018460026141a99190615163565b6141b3919061510d565b90505b600181111561429f577f3031323334353637383961626364656600000000000000000000000000000000600f86166010811061421b577f4e487b7100000000000000000000000000000000000000000000000000000000600052603260045260246000fd5b1a60f81b828281518110614258577f4e487b7100000000000000000000000000000000000000000000000000000000600052603260045260246000fd5b60200101907effffffffffffffffffffffffffffffffffffffffffffffffffffffffffffff1916908160001a905350600485901c945080614298906152be565b90506141b6565b50600084146142e3576040517f08c379a00000000000000000000000000000000000000000000000000000000081526004016142da90614e39565b60405180910390fd5b8091505092915050565b6000816040516020016143009190614c32565b60405160208183030381529060405280519060200120836040516020016143279190614c32565b6040516020818303038152906040528051906020012014905092915050565b600080823b905060008111915050919050565b828054614365906152e8565b90600052602060002090601f01602090048101928261438757600085556143ce565b82601f106143a057805160ff19168380011785556143ce565b828001600101855582156143ce579182015b828111156143cd5782518255916020019190600101906143b2565b5b5090506143db91906143f2565b5090565b6040518060200160405280606081525090565b5b8082111561440b5760008160009055506001016143f3565b5090565b600061442261441d84614fcd565b614fa8565b9050808382526020820190508285602086028201111561444157600080fd5b60005b8581101561448b57813567ffffffffffffffff81111561446357600080fd5b8086016144708982614551565b85526020850194506020840193505050600181019050614444565b5050509392505050565b60006144a86144a384614ff9565b614fa8565b9050828152602081018484840111156144c057600080fd5b6144cb84828561527c565b509392505050565b6000813590506144e28161559a565b92915050565b600082601f8301126144f957600080fd5b813561450984826020860161440f565b91505092915050565b600081359050614521816155b1565b92915050565b600081359050614536816155c8565b92915050565b60008135905061454b816155df565b92915050565b600082601f83011261456257600080fd5b8135614572848260208601614495565b91505092915050565b60008135905061458a816155f6565b92915050565b60008135905061459f8161560d565b92915050565b6000602082840312156145b757600080fd5b60006145c5848285016144d3565b91505092915050565b600080604083850312156145e157600080fd5b60006145ef858286016144d3565b925050602061460085828601614512565b9150509250929050565b60006020828403121561461c57600080fd5b600061462a84828501614527565b91505092915050565b6000806040838503121561464657600080fd5b600061465485828601614527565b9250506020614665858286016144d3565b9150509250929050565b60006020828403121561468157600080fd5b600061468f8482850161453c565b91505092915050565b6000602082840312156146aa57600080fd5b600082013567ffffffffffffffff8111156146c457600080fd5b6146d084828501614551565b91505092915050565b60008060008060008060c087890312156146f257600080fd5b600087013567ffffffffffffffff81111561470c57600080fd5b61471889828a01614551565b965050602087013567ffffffffffffffff81111561473557600080fd5b61474189828a016144e8565b955050604061475289828a0161457b565b945050606061476389828a01614590565b935050608061477489828a01614527565b92505060a061478589828a01614527565b9150509295509295509295565b6000602082840312156147a457600080fd5b60006147b28482850161457b565b91505092915050565b600080604083850312156147ce57600080fd5b60006147dc8582860161457b565b92505060206147ed85828601614512565b9150509250929050565b6000806040838503121561480a57600080fd5b60006148188582860161457b565b925050602083013567ffffffffffffffff81111561483557600080fd5b61484185828601614551565b9150509250929050565b6000806040838503121561485e57600080fd5b600061486c8582860161457b565b925050602061487d8582860161457b565b9150509250929050565b60006148938383614a3c565b905092915050565b60006148a78383614bb1565b905092915050565b60006148bb8383614c05565b60208301905092915050565b6148d0816151f1565b82525050565b60006148e18261505a565b6148eb81856150ad565b9350836020820285016148fd8561502a565b8060005b85811015614939578484038952815161491a8582614887565b945061492583615086565b925060208a01995050600181019050614901565b50829750879550505050505092915050565b600061495682615065565b61496081856150be565b9350836020820285016149728561503a565b8060005b858110156149ae578484038952815161498f858261489b565b945061499a83615093565b925060208a01995050600181019050614976565b50829750879550505050505092915050565b60006149cb82615070565b6149d581856150cf565b93506149e08361504a565b8060005b83811015614a115781516149f888826148af565b9750614a03836150a0565b9250506001810190506149e4565b5085935050505092915050565b614a2781615203565b82525050565b614a368161520f565b82525050565b6000614a478261507b565b614a5181856150e0565b9350614a6181856020860161528b565b614a6a81615421565b840191505092915050565b6000614a808261507b565b614a8a81856150f1565b9350614a9a81856020860161528b565b614aa381615421565b840191505092915050565b6000614ab98261507b565b614ac38185615102565b9350614ad381856020860161528b565b80840191505092915050565b6000614aec6020836150f1565b9150614af782615432565b602082019050919050565b6000614b0f602e836150f1565b9150614b1a8261545b565b604082019050919050565b6000614b32602b836150f1565b9150614b3d826154aa565b604082019050919050565b6000614b55601783615102565b9150614b60826154f9565b601782019050919050565b6000614b78601183615102565b9150614b8382615522565b601182019050919050565b6000614b9b602f836150f1565b9150614ba68261554b565b604082019050919050565b60006020830160008301518482036000860152614bce8282614a3c565b9150508091505092915050565b60006020830160008301518482036000860152614bf88282614a3c565b9150508091505092915050565b614c0e81615265565b82525050565b614c1d81615265565b82525050565b614c2c8161526f565b82525050565b6000614c3e8284614aae565b915081905092915050565b6000614c5482614b48565b9150614c608285614aae565b9150614c6b82614b6b565b9150614c778284614aae565b91508190509392505050565b6000602082019050614c9860008301846148c7565b92915050565b60006020820190508181036000830152614cb881846148d6565b905092915050565b600060c0820190508181036000830152614cda81896148d6565b90508181036020830152614cee8188614a75565b9050614cfd6040830187614c14565b614d0a6060830186614c23565b614d176080830185614a2d565b614d2460a0830184614a2d565b979650505050505050565b60006020820190508181036000830152614d49818461494b565b905092915050565b60006020820190508181036000830152614d6b81846149c0565b905092915050565b6000602082019050614d886000830184614a1e565b92915050565b6000602082019050614da36000830184614a2d565b92915050565b60006020820190508181036000830152614dc38184614a75565b905092915050565b60006040820190508181036000830152614de58185614a75565b9050614df46020830184614c14565b9392505050565b60006060820190508181036000830152614e158186614a75565b9050614e246020830185614c14565b614e316040830184614c14565b949350505050565b60006020820190508181036000830152614e5281614adf565b9050919050565b60006020820190508181036000830152614e7281614b02565b9050919050565b60006020820190508181036000830152614e9281614b25565b9050919050565b60006020820190508181036000830152614eb281614b8e565b9050919050565b60006020820190508181036000830152614ed38184614bdb565b905092915050565b6000602082019050614ef06000830184614c14565b92915050565b6000604082019050614f0b6000830185614c14565b614f186020830184614a1e565b9392505050565b6000604082019050614f346000830185614c14565b8181036020830152614f468184614a75565b90509392505050565b6000604082019050614f646000830185614c14565b8181036020830152614f768184614bdb565b90509392505050565b6000604082019050614f946000830185614c14565b614fa16020830184614c14565b9392505050565b6000614fb2614fc3565b9050614fbe828261531a565b919050565b6000604051905090565b600067ffffffffffffffff821115614fe857614fe76153f2565b5b602082029050602081019050919050565b600067ffffffffffffffff821115615014576150136153f2565b5b61501d82615421565b9050602081019050919050565b6000819050602082019050919050565b6000819050602082019050919050565b6000819050602082019050919050565b600081519050919050565b600081519050919050565b600081519050919050565b600081519050919050565b6000602082019050919050565b6000602082019050919050565b6000602082019050919050565b600082825260208201905092915050565b600082825260208201905092915050565b600082825260208201905092915050565b600082825260208201905092915050565b600082825260208201905092915050565b600081905092915050565b600061511882615265565b915061512383615265565b9250827fffffffffffffffffffffffffffffffffffffffffffffffffffffffffffffffff0382111561515857615157615394565b5b828201905092915050565b600061516e82615265565b915061517983615265565b9250817fffffffffffffffffffffffffffffffffffffffffffffffffffffffffffffffff04831182151516156151b2576151b1615394565b5b828202905092915050565b60006151c882615265565b91506151d383615265565b9250828210156151e6576151e5615394565b5b828203905092915050565b60006151fc82615245565b9050919050565b60008115159050919050565b6000819050919050565b60007fffffffff0000000000000000000000000000000000000000000000000000000082169050919050565b600073ffffffffffffffffffffffffffffffffffffffff82169050919050565b6000819050919050565b600060ff82169050919050565b82818337600083830152505050565b60005b838110156152a957808201518184015260208101905061528e565b838111156152b8576000848401525b50505050565b60006152c982615265565b915060008214156152dd576152dc615394565b5b600182039050919050565b6000600282049050600182168061530057607f821691505b60208210811415615314576153136153c3565b5b50919050565b61532382615421565b810181811067ffffffffffffffff82111715615342576153416153f2565b5b80604052505050565b600061535682615265565b91507fffffffffffffffffffffffffffffffffffffffffffffffffffffffffffffffff82141561538957615388615394565b5b600182019050919050565b7f4e487b7100000000000000000000000000000000000000000000000000000000600052601160045260246000fd5b7f4e487b7100000000000000000000000000000000000000000000000000000000600052602260045260246000fd5b7f4e487b7100000000000000000000000000000000000000000000000000000000600052604160045260246000fd5b6000601f19601f8301169050919050565b7f537472696e67733a20686578206c656e67746820696e73756666696369656e74600082015250565b7f496e697469616c697a61626c653a20636f6e747261637420697320616c72656160008201527f647920696e697469616c697a6564000000000000000000000000000000000000602082015250565b7f496e697469616c697a61626c653a20636f6e7472616374206973206e6f74206960008201527f6e697469616c697a696e67000000000000000000000000000000000000000000602082015250565b7f416363657373436f6e74726f6c3a206163636f756e7420000000000000000000600082015250565b7f206973206d697373696e6720726f6c6520000000000000000000000000000000600082015250565b7f416363657373436f6e74726f6c3a2063616e206f6e6c792072656e6f756e636560008201527f20726f6c657320666f722073656c660000000000000000000000000000000000602082015250565b6155a3816151f1565b81146155ae57600080fd5b50565b6155ba81615203565b81146155c557600080fd5b50565b6155d18161520f565b81146155dc57600080fd5b50565b6155e881615219565b81146155f357600080fd5b50565b6155ff81615265565b811461560a57600080fd5b50565b6156168161526f565b811461562157600080fd5b5056fea264697066735822122046f30faf123f7aed5e947dabaa158e95c721999e0ee5c2be30678a25ca107cbf64736f6c63430008040033",
  "linkReferences": {},
  "deployedLinkReferences": {}
}