{
  "_format": "hh-sol-artifact-1",
  "contractName": "TagContractUpgradeable",
  "sourceName": "contracts/TagUpgradable.sol",
  "abi": [
    {
      "anonymous": false,
      "inputs": [
        {
          "indexed": false,
          "internalType": "string[]",
          "name": "tags",
          "type": "string[]"
        },
        {
          "indexed": false,
          "internalType": "string",
          "name": "cid",
          "type": "string"
        },
        {
          "indexed": false,
          "internalType": "address",
          "name": "provider",
          "type": "address"
        }
      ],
      "name": "AddTag",
      "type": "event"
    },
    {
      "anonymous": false,
      "inputs": [
        {
          "indexed": false,
          "internalType": "string[]",
          "name": "tags",
          "type": "string[]"
        },
        {
          "indexed": false,
          "internalType": "string",
          "name": "cid",
          "type": "string"
        },
        {
          "indexed": false,
          "internalType": "address",
          "name": "provider",
          "type": "address"
        }
      ],
      "name": "ClearTag",
      "type": "event"
    },
    {
      "anonymous": false,
      "inputs": [
        {
          "indexed": false,
          "internalType": "string[]",
          "name": "tags",
          "type": "string[]"
        },
        {
          "indexed": false,
          "internalType": "string",
          "name": "cid",
          "type": "string"
        },
        {
          "indexed": false,
          "internalType": "address",
          "name": "provider",
          "type": "address"
        }
      ],
      "name": "CreateTag",
      "type": "event"
    },
    {
      "anonymous": false,
      "inputs": [
        {
          "indexed": false,
          "internalType": "string[]",
          "name": "tags",
          "type": "string[]"
        },
        {
          "indexed": false,
          "internalType": "string",
          "name": "cid",
          "type": "string"
        },
        {
          "indexed": false,
          "internalType": "address",
          "name": "provider",
          "type": "address"
        }
      ],
      "name": "RemoveTag",
      "type": "event"
    },
    {
      "inputs": [
        {
          "internalType": "string[]",
          "name": "tags",
          "type": "string[]"
        },
        {
          "internalType": "string",
          "name": "cid",
          "type": "string"
        },
        {
          "internalType": "uint256",
          "name": "deadline",
          "type": "uint256"
        },
        {
          "internalType": "uint8",
          "name": "v",
          "type": "uint8"
        },
        {
          "internalType": "bytes32",
          "name": "r",
          "type": "bytes32"
        },
        {
          "internalType": "bytes32",
          "name": "s",
          "type": "bytes32"
        }
      ],
      "name": "addTagsWithSig",
      "outputs": [],
      "stateMutability": "nonpayable",
      "type": "function"
    },
    {
      "inputs": [
        {
          "internalType": "string[]",
          "name": "tags",
          "type": "string[]"
        },
        {
          "internalType": "string",
          "name": "cid",
          "type": "string"
        }
      ],
      "name": "addTagsWithoutSig",
      "outputs": [],
      "stateMutability": "nonpayable",
      "type": "function"
    },
    {
      "inputs": [
        {
          "internalType": "uint256",
          "name": "",
          "type": "uint256"
        }
      ],
      "name": "cidArray",
      "outputs": [
        {
          "internalType": "string",
          "name": "",
          "type": "string"
        }
      ],
      "stateMutability": "view",
      "type": "function"
    },
    {
      "inputs": [
        {
          "internalType": "string",
          "name": "",
          "type": "string"
        }
      ],
      "name": "cidMapping",
      "outputs": [
        {
          "internalType": "uint256",
          "name": "",
          "type": "uint256"
        }
      ],
      "stateMutability": "view",
      "type": "function"
    },
    {
      "inputs": [
        {
          "internalType": "address",
          "name": "",
          "type": "address"
        },
        {
          "internalType": "uint256",
          "name": "",
          "type": "uint256"
        },
        {
          "internalType": "uint256",
          "name": "",
          "type": "uint256"
        }
      ],
      "name": "cidTagExistenceMapping",
      "outputs": [
        {
          "internalType": "uint256",
          "name": "",
          "type": "uint256"
        }
      ],
      "stateMutability": "view",
      "type": "function"
    },
    {
      "inputs": [
        {
          "internalType": "address",
          "name": "",
          "type": "address"
        },
        {
          "internalType": "uint256",
          "name": "",
          "type": "uint256"
        },
        {
          "internalType": "uint256",
          "name": "",
          "type": "uint256"
        }
      ],
      "name": "cidTagMapping",
      "outputs": [
        {
          "internalType": "uint256",
          "name": "",
          "type": "uint256"
        }
      ],
      "stateMutability": "view",
      "type": "function"
    },
    {
      "inputs": [
        {
          "internalType": "string",
          "name": "cid",
          "type": "string"
        },
        {
          "internalType": "uint256",
          "name": "deadline",
          "type": "uint256"
        },
        {
          "internalType": "uint8",
          "name": "v",
          "type": "uint8"
        },
        {
          "internalType": "bytes32",
          "name": "r",
          "type": "bytes32"
        },
        {
          "internalType": "bytes32",
          "name": "s",
          "type": "bytes32"
        }
      ],
      "name": "clearTagsWithSig",
      "outputs": [],
      "stateMutability": "nonpayable",
      "type": "function"
    },
    {
      "inputs": [
        {
          "internalType": "string",
          "name": "cid",
          "type": "string"
        }
      ],
      "name": "clearTagsWithoutSig",
      "outputs": [],
      "stateMutability": "nonpayable",
      "type": "function"
    },
    {
      "inputs": [
        {
          "internalType": "string",
          "name": "tag",
          "type": "string"
        },
        {
          "internalType": "address",
          "name": "fromProvider",
          "type": "address"
        },
        {
          "internalType": "uint256",
          "name": "skip",
          "type": "uint256"
        },
        {
          "internalType": "uint256",
          "name": "limit",
          "type": "uint256"
        }
      ],
      "name": "getCIDswithTags",
      "outputs": [
        {
          "internalType": "string[]",
          "name": "",
          "type": "string[]"
        }
      ],
      "stateMutability": "view",
      "type": "function"
    },
    {
      "inputs": [
        {
          "internalType": "string",
          "name": "cid",
          "type": "string"
        },
        {
          "internalType": "address",
          "name": "fromProvider",
          "type": "address"
        },
        {
          "internalType": "uint256",
          "name": "skip",
          "type": "uint256"
        },
        {
          "internalType": "uint256",
          "name": "limit",
          "type": "uint256"
        }
      ],
      "name": "getTagsWithCID",
      "outputs": [
        {
          "internalType": "string[]",
          "name": "",
          "type": "string[]"
        }
      ],
      "stateMutability": "view",
      "type": "function"
    },
    {
      "inputs": [
        {
          "internalType": "address",
          "name": "forwarder",
          "type": "address"
        }
      ],
      "name": "initialize",
      "outputs": [],
      "stateMutability": "nonpayable",
      "type": "function"
    },
    {
      "inputs": [
        {
          "internalType": "address",
          "name": "forwarder",
          "type": "address"
        }
      ],
      "name": "isTrustedForwarder",
      "outputs": [
        {
          "internalType": "bool",
          "name": "",
          "type": "bool"
        }
      ],
      "stateMutability": "view",
      "type": "function"
    },
    {
      "inputs": [
        {
          "internalType": "uint256",
          "name": "",
          "type": "uint256"
        }
      ],
      "name": "providers",
      "outputs": [
        {
          "internalType": "address",
          "name": "",
          "type": "address"
        }
      ],
      "stateMutability": "view",
      "type": "function"
    },
    {
      "inputs": [
        {
          "internalType": "string[]",
          "name": "tags",
          "type": "string[]"
        },
        {
          "internalType": "string",
          "name": "cid",
          "type": "string"
        },
        {
          "internalType": "bool",
          "name": "skipUnmatch",
          "type": "bool"
        },
        {
          "internalType": "uint256",
          "name": "deadline",
          "type": "uint256"
        },
        {
          "internalType": "uint8",
          "name": "v",
          "type": "uint8"
        },
        {
          "internalType": "bytes32",
          "name": "r",
          "type": "bytes32"
        },
        {
          "internalType": "bytes32",
          "name": "s",
          "type": "bytes32"
        }
      ],
      "name": "removeTagsWithSig",
      "outputs": [],
      "stateMutability": "nonpayable",
      "type": "function"
    },
    {
      "inputs": [
        {
          "internalType": "string[]",
          "name": "tags",
          "type": "string[]"
        },
        {
          "internalType": "string",
          "name": "cid",
          "type": "string"
        },
        {
          "internalType": "bool",
          "name": "skipUnmatch",
          "type": "bool"
        }
      ],
      "name": "removeTagsWithoutSig",
      "outputs": [],
      "stateMutability": "nonpayable",
      "type": "function"
    },
    {
      "inputs": [],
      "name": "setTagProvider",
      "outputs": [],
      "stateMutability": "nonpayable",
      "type": "function"
    },
    {
      "inputs": [
        {
          "internalType": "string[]",
          "name": "tags",
          "type": "string[]"
        },
        {
          "internalType": "string",
          "name": "cid",
          "type": "string"
        },
        {
          "internalType": "uint256",
          "name": "deadline",
          "type": "uint256"
        },
        {
          "internalType": "uint8",
          "name": "v",
          "type": "uint8"
        },
        {
          "internalType": "bytes32",
          "name": "r",
          "type": "bytes32"
        },
        {
          "internalType": "bytes32",
          "name": "s",
          "type": "bytes32"
        }
      ],
      "name": "setTagsWithSig",
      "outputs": [],
      "stateMutability": "nonpayable",
      "type": "function"
    },
    {
      "inputs": [
        {
          "internalType": "string[]",
          "name": "tags",
          "type": "string[]"
        },
        {
          "internalType": "string",
          "name": "cid",
          "type": "string"
        }
      ],
      "name": "setTagsWithoutSig",
      "outputs": [],
      "stateMutability": "nonpayable",
      "type": "function"
    },
    {
      "inputs": [
        {
          "internalType": "uint256",
          "name": "",
          "type": "uint256"
        }
      ],
      "name": "tagArray",
      "outputs": [
        {
          "internalType": "string",
          "name": "",
          "type": "string"
        }
      ],
      "stateMutability": "view",
      "type": "function"
    },
    {
      "inputs": [
        {
          "internalType": "address",
          "name": "",
          "type": "address"
        },
        {
          "internalType": "uint256",
          "name": "",
          "type": "uint256"
        },
        {
          "internalType": "uint256",
          "name": "",
          "type": "uint256"
        }
      ],
      "name": "tagCidExistenceMapping",
      "outputs": [
        {
          "internalType": "uint256",
          "name": "",
          "type": "uint256"
        }
      ],
      "stateMutability": "view",
      "type": "function"
    },
    {
      "inputs": [
        {
          "internalType": "address",
          "name": "",
          "type": "address"
        },
        {
          "internalType": "uint256",
          "name": "",
          "type": "uint256"
        },
        {
          "internalType": "uint256",
          "name": "",
          "type": "uint256"
        }
      ],
      "name": "tagCidMapping",
      "outputs": [
        {
          "internalType": "uint256",
          "name": "",
          "type": "uint256"
        }
      ],
      "stateMutability": "view",
      "type": "function"
    },
    {
      "inputs": [
        {
          "internalType": "string",
          "name": "",
          "type": "string"
        }
      ],
      "name": "tagMapping",
      "outputs": [
        {
          "internalType": "uint256",
          "name": "",
          "type": "uint256"
        }
      ],
      "stateMutability": "view",
      "type": "function"
    },
    {
      "inputs": [],
      "name": "trustedForwarder",
      "outputs": [
        {
          "internalType": "address",
          "name": "",
          "type": "address"
        }
      ],
      "stateMutability": "view",
      "type": "function"
    },
    {
      "inputs": [],
      "name": "versionRecipient",
      "outputs": [
        {
          "internalType": "string",
          "name": "",
          "type": "string"
        }
      ],
      "stateMutability": "view",
      "type": "function"
    }
  ],
  "bytecode": "0x608060405234801561001057600080fd5b506146f5806100206000396000f3fe608060405234801561001057600080fd5b50600436106101585760003560e01c80636c99c8e3116100c3578063d7e559021161007c578063d7e5590214610421578063df1e715f1461043d578063e0b0d71a1461046d578063e115ab6714610489578063e1583fe5146104b9578063eec82188146104d557610158565b80636c99c8e31461034f57806379f004cd1461037f5780637da0a8771461039b578063b02f5dd4146103b9578063bdb044fd146103e9578063c4d66de81461040557610158565b80633fc35f8d116101155780633fc35f8d14610255578063486ff0cd146102715780634d7cd0b61461028f57806350f3fc81146102bf578063572b6c05146102ef578063643de5cf1461031f57610158565b8063014b3aa11461015d57806309e8310e1461018d57806316003ef8146101bd578063293757fc146101ed5780633b1bd9a11461021d5780633d85360c14610239575b600080fd5b61017760048036038101906101729190613be9565b6104df565b6040516101849190613f74565b60405180910390f35b6101a760048036038101906101a291906138e7565b61095a565b6040516101b491906141d6565b60405180910390f35b6101d760048036038101906101d291906138e7565b61098c565b6040516101e491906141d6565b60405180910390f35b61020760048036038101906102029190613ba8565b6109be565b60405161021491906141d6565b60405180910390f35b610237600480360381019061023291906139a2565b6109ec565b005b610253600480360381019061024e9190613a21565b610a04565b005b61026f600480360381019061026a9190613936565b610bdf565b005b610279610bf5565b604051610286919061403b565b60405180910390f35b6102a960048036038101906102a49190613cf3565b610c83565b6040516102b6919061403b565b60405180910390f35b6102d960048036038101906102d49190613cf3565b610d2f565b6040516102e69190613f59565b60405180910390f35b610309600480360381019061030491906138be565b610d6e565b6040516103169190613fdb565b60405180910390f35b61033960048036038101906103349190613ba8565b610dc7565b60405161034691906141d6565b60405180910390f35b610369600480360381019061036491906138e7565b610df5565b60405161037691906141d6565b60405180910390f35b61039960048036038101906103949190613c64565b610e33565b005b6103a3611006565b6040516103b09190613f59565b60405180910390f35b6103d360048036038101906103ce9190613cf3565b61102f565b6040516103e0919061403b565b60405180910390f35b61040360048036038101906103fe9190613936565b6110db565b005b61041f600480360381019061041a91906138be565b6110f1565b005b61043b60048036038101906104369190613aef565b61122b565b005b61045760048036038101906104529190613be9565b611402565b6040516104649190613f74565b60405180910390f35b61048760048036038101906104829190613aef565b61187d565b005b6104a3600480360381019061049e91906138e7565b611a54565b6040516104b091906141d6565b60405180910390f35b6104d360048036038101906104ce9190613ba8565b611a92565b005b6104dd611aa6565b005b6060610571600280548060200260200160405190810160405280929190818152602001828054801561056657602002820191906000526020600020905b8160009054906101000a900473ffffffffffffffffffffffffffffffffffffffff1673ffffffffffffffffffffffffffffffffffffffff168152602001906001019080831161051c575b505050505085611c22565b6040518060400160405280600b81526020017f4e6f2050726f7669646572000000000000000000000000000000000000000000815250906105e8576040517f08c379a00000000000000000000000000000000000000000000000000000000081526004016105df919061403b565b60405180910390fd5b5060006006866040516105fb9190613f42565b9081526020016040518091039020549050600860008673ffffffffffffffffffffffffffffffffffffffff1673ffffffffffffffffffffffffffffffffffffffff168152602001908152602001600020600082815260200190815260200160002080549050838561066c91906142e4565b11156040518060400160405280601381526020017f496e646578204f7574206f6620426f756e647300000000000000000000000000815250906106e5576040517f08c379a00000000000000000000000000000000000000000000000000000000081526004016106dc919061403b565b60405180910390fd5b5060008367ffffffffffffffff811115610728577f4e487b7100000000000000000000000000000000000000000000000000000000600052604160045260246000fd5b60405190808252806020026020018201604052801561075b57816020015b60608152602001906001900390816107465790505b50905060005b8481101561094c576000600860008973ffffffffffffffffffffffffffffffffffffffff1673ffffffffffffffffffffffffffffffffffffffff168152602001908152602001600020600085815260200190815260200160002082886107c791906142e4565b815481106107fe577f4e487b7100000000000000000000000000000000000000000000000000000000600052603260045260246000fd5b9060005260206000200154905060008114610938576003610829600183611cd090919063ffffffff16565b81548110610860577f4e487b7100000000000000000000000000000000000000000000000000000000600052603260045260246000fd5b9060005260206000200180546108759061440f565b80601f01602080910402602001604051908101604052809291908181526020018280546108a19061440f565b80156108ee5780601f106108c3576101008083540402835291602001916108ee565b820191906000526020600020905b8154815290600101906020018083116108d157829003601f168201915b505050505083838151811061092c577f4e487b7100000000000000000000000000000000000000000000000000000000600052603260045260246000fd5b60200260200101819052505b50808061094490614472565b915050610761565b508092505050949350505050565b600a60205282600052604060002060205281600052604060002060205280600052604060002060009250925050505481565b600960205282600052604060002060205281600052604060002060205280600052604060002060009250925050505481565b6006818051602081018201805184825260208301602085012081835280955050505050506000915090505481565b6109ff83836109f9611ce6565b84611d1d565b505050565b4284116040518060400160405280601081526020017f4578706972656420646561646c696e650000000000000000000000000000000081525090610a7e576040517f08c379a0000000000000000000000000000000000000000000000000000000008152600401610a75919061403b565b60405180910390fd5b50600086888787604051602001610a989493929190614118565b6040516020818303038152906040528051906020012090506000610abe82868686612312565b9050610b506002805480602002602001604051908101604052809291908181526020018280548015610b4557602002820191906000526020600020905b8160009054906101000a900473ffffffffffffffffffffffffffffffffffffffff1673ffffffffffffffffffffffffffffffffffffffff1681526020019060010190808311610afb575b505050505082611c22565b6040518060400160405280600b81526020017f4e6f2050726f766964657200000000000000000000000000000000000000000081525090610bc7576040517f08c379a0000000000000000000000000000000000000000000000000000000008152600401610bbe919061403b565b60405180910390fd5b50610bd48989838a611d1d565b505050505050505050565b610bf18282610bec611ce6565b61240d565b5050565b60018054610c029061440f565b80601f0160208091040260200160405190810160405280929190818152602001828054610c2e9061440f565b8015610c7b5780601f10610c5057610100808354040283529160200191610c7b565b820191906000526020600020905b815481529060010190602001808311610c5e57829003601f168201915b505050505081565b60038181548110610c9357600080fd5b906000526020600020016000915090508054610cae9061440f565b80601f0160208091040260200160405190810160405280929190818152602001828054610cda9061440f565b8015610d275780601f10610cfc57610100808354040283529160200191610d27565b820191906000526020600020905b815481529060010190602001808311610d0a57829003601f168201915b505050505081565b60028181548110610d3f57600080fd5b906000526020600020016000915054906101000a900473ffffffffffffffffffffffffffffffffffffffff1681565b60008060029054906101000a900473ffffffffffffffffffffffffffffffffffffffff1673ffffffffffffffffffffffffffffffffffffffff168273ffffffffffffffffffffffffffffffffffffffff16149050919050565b6005818051602081018201805184825260208301602085012081835280955050505050506000915090505481565b60086020528260005260406000206020528160005260406000208181548110610e1d57600080fd5b9060005260206000200160009250925050505481565b4284116040518060400160405280601081526020017f4578706972656420646561646c696e650000000000000000000000000000000081525090610ead576040517f08c379a0000000000000000000000000000000000000000000000000000000008152600401610ea4919061403b565b60405180910390fd5b5060008585604051602001610ec392919061405d565b6040516020818303038152906040528051906020012090506000610ee982868686612312565b9050610f7b6002805480602002602001604051908101604052809291908181526020018280548015610f7057602002820191906000526020600020905b8160009054906101000a900473ffffffffffffffffffffffffffffffffffffffff1673ffffffffffffffffffffffffffffffffffffffff1681526020019060010190808311610f26575b505050505082611c22565b6040518060400160405280600b81526020017f4e6f2050726f766964657200000000000000000000000000000000000000000081525090610ff2576040517f08c379a0000000000000000000000000000000000000000000000000000000008152600401610fe9919061403b565b60405180910390fd5b50610ffd8782612999565b50505050505050565b60008060029054906101000a900473ffffffffffffffffffffffffffffffffffffffff16905090565b6004818154811061103f57600080fd5b90600052602060002001600091509050805461105a9061440f565b80601f01602080910402602001604051908101604052809291908181526020018280546110869061440f565b80156110d35780601f106110a8576101008083540402835291602001916110d3565b820191906000526020600020905b8154815290600101906020018083116110b657829003601f168201915b505050505081565b6110ed82826110e8611ce6565b61329c565b5050565b600060019054906101000a900460ff166111195760008054906101000a900460ff1615611122565b611121613463565b5b611161576040517f08c379a0000000000000000000000000000000000000000000000000000000008152600401611158906140f8565b60405180910390fd5b60008060019054906101000a900460ff1615905080156111b1576001600060016101000a81548160ff02191690831515021790555060016000806101000a81548160ff0219169083151502179055505b6040518060400160405280600581526020017f322e322e30000000000000000000000000000000000000000000000000000000815250600190805190602001906111fc92919061364d565b5061120682613474565b80156112275760008060016101000a81548160ff0219169083151502179055505b5050565b4284116040518060400160405280601081526020017f4578706972656420646561646c696e6500000000000000000000000000000000815250906112a5576040517f08c379a000000000000000000000000000000000000000000000000000000000815260040161129c919061403b565b60405180910390fd5b5060008587866040516020016112bd9392919061417e565b60405160208183030381529060405280519060200120905060006112e382868686612312565b9050611375600280548060200260200160405190810160405280929190818152602001828054801561136a57602002820191906000526020600020905b8160009054906101000a900473ffffffffffffffffffffffffffffffffffffffff1673ffffffffffffffffffffffffffffffffffffffff1681526020019060010190808311611320575b505050505082611c22565b6040518060400160405280600b81526020017f4e6f2050726f7669646572000000000000000000000000000000000000000000815250906113ec576040517f08c379a00000000000000000000000000000000000000000000000000000000081526004016113e3919061403b565b60405180910390fd5b506113f888888361240d565b5050505050505050565b6060611494600280548060200260200160405190810160405280929190818152602001828054801561148957602002820191906000526020600020905b8160009054906101000a900473ffffffffffffffffffffffffffffffffffffffff1673ffffffffffffffffffffffffffffffffffffffff168152602001906001019080831161143f575b505050505085611c22565b6040518060400160405280600b81526020017f4e6f2050726f76696465720000000000000000000000000000000000000000008152509061150b576040517f08c379a0000000000000000000000000000000000000000000000000000000008152600401611502919061403b565b60405180910390fd5b50600060058660405161151e9190613f42565b9081526020016040518091039020549050600760008673ffffffffffffffffffffffffffffffffffffffff1673ffffffffffffffffffffffffffffffffffffffff168152602001908152602001600020600082815260200190815260200160002080549050838561158f91906142e4565b11156040518060400160405280601381526020017f496e646578204f7574206f6620426f756e64730000000000000000000000000081525090611608576040517f08c379a00000000000000000000000000000000000000000000000000000000081526004016115ff919061403b565b60405180910390fd5b5060008367ffffffffffffffff81111561164b577f4e487b7100000000000000000000000000000000000000000000000000000000600052604160045260246000fd5b60405190808252806020026020018201604052801561167e57816020015b60608152602001906001900390816116695790505b50905060005b8481101561186f576000600760008973ffffffffffffffffffffffffffffffffffffffff1673ffffffffffffffffffffffffffffffffffffffff168152602001908152602001600020600085815260200190815260200160002082886116ea91906142e4565b81548110611721577f4e487b7100000000000000000000000000000000000000000000000000000000600052603260045260246000fd5b906000526020600020015490506000811461185b57600461174c600183611cd090919063ffffffff16565b81548110611783577f4e487b7100000000000000000000000000000000000000000000000000000000600052603260045260246000fd5b9060005260206000200180546117989061440f565b80601f01602080910402602001604051908101604052809291908181526020018280546117c49061440f565b80156118115780601f106117e657610100808354040283529160200191611811565b820191906000526020600020905b8154815290600101906020018083116117f457829003601f168201915b505050505083838151811061184f577f4e487b7100000000000000000000000000000000000000000000000000000000600052603260045260246000fd5b60200260200101819052505b50808061186790614472565b915050611684565b508092505050949350505050565b4284116040518060400160405280601081526020017f4578706972656420646561646c696e6500000000000000000000000000000000815250906118f7576040517f08c379a00000000000000000000000000000000000000000000000000000000081526004016118ee919061403b565b60405180910390fd5b50600085878660405160200161190f939291906140a0565b604051602081830303815290604052805190602001209050600061193582868686612312565b90506119c760028054806020026020016040519081016040528092919081815260200182805480156119bc57602002820191906000526020600020905b8160009054906101000a900473ffffffffffffffffffffffffffffffffffffffff1673ffffffffffffffffffffffffffffffffffffffff1681526020019060010190808311611972575b505050505082611c22565b6040518060400160405280600b81526020017f4e6f2050726f766964657200000000000000000000000000000000000000000081525090611a3e576040517f08c379a0000000000000000000000000000000000000000000000000000000008152600401611a35919061403b565b60405180910390fd5b50611a4a88888361329c565b5050505050505050565b60076020528260005260406000206020528160005260406000208181548110611a7c57600080fd5b9060005260206000200160009250925050505481565b611aa381611a9e611ce6565b612999565b50565b611b3d6002805480602002602001604051908101604052809291908181526020018280548015611b2b57602002820191906000526020600020905b8160009054906101000a900473ffffffffffffffffffffffffffffffffffffffff1673ffffffffffffffffffffffffffffffffffffffff1681526020019060010190808311611ae1575b5050505050611b38611ce6565b611c22565b156040518060400160405280600f81526020017f50726f766964657220457869737473000000000000000000000000000000000081525090611bb5576040517f08c379a0000000000000000000000000000000000000000000000000000000008152600401611bac919061403b565b60405180910390fd5b506002611bc0611ce6565b9080600181540180825580915050600190039060005260206000200160009091909190916101000a81548173ffffffffffffffffffffffffffffffffffffffff021916908373ffffffffffffffffffffffffffffffffffffffff160217905550565b600080600090505b8351811015611cc4578273ffffffffffffffffffffffffffffffffffffffff16848281518110611c83577f4e487b7100000000000000000000000000000000000000000000000000000000600052603260045260246000fd5b602002602001015173ffffffffffffffffffffffffffffffffffffffff161415611cb1576001915050611cca565b8080611cbc90614472565b915050611c2a565b50600090505b92915050565b60008183611cde919061433a565b905092915050565b60006014600036905010158015611d025750611d0133610d6e565b5b15611d1657601436033560601c9050611d1a565b3390505b90565b611dad6002805480602002602001604051908101604052809291908181526020018280548015611da257602002820191906000526020600020905b8160009054906101000a900473ffffffffffffffffffffffffffffffffffffffff1673ffffffffffffffffffffffffffffffffffffffff1681526020019060010190808311611d58575b505050505083611c22565b6040518060400160405280600b81526020017f4e6f2050726f766964657200000000000000000000000000000000000000000081525090611e24576040517f08c379a0000000000000000000000000000000000000000000000000000000008152600401611e1b919061403b565b60405180910390fd5b506000600684604051611e379190613f42565b9081526020016040518091039020549050600081116040518060400160405280600681526020017f4e6f20434944000000000000000000000000000000000000000000000000000081525090611ec3576040517f08c379a0000000000000000000000000000000000000000000000000000000008152600401611eba919061403b565b60405180910390fd5b5060005b85518110156122cf5760006005878381518110611f0d577f4e487b7100000000000000000000000000000000000000000000000000000000600052603260045260246000fd5b6020026020010151604051611f229190613f42565b90815260200160405180910390205490506000600960008773ffffffffffffffffffffffffffffffffffffffff1673ffffffffffffffffffffffffffffffffffffffff168152602001908152602001600020600083815260200190815260200160002060008581526020019081526020016000205490506000600a60008873ffffffffffffffffffffffffffffffffffffffff1673ffffffffffffffffffffffffffffffffffffffff16815260200190815260200160002060008681526020019081526020016000206000848152602001908152602001600020549050600082148061200e5750600081145b1561209457856040518060400160405280600b81526020017f4e4f204d41544348494e470000000000000000000000000000000000000000008152509061208b576040517f08c379a0000000000000000000000000000000000000000000000000000000008152600401612082919061403b565b60405180910390fd5b505050506122bc565b6000600760008973ffffffffffffffffffffffffffffffffffffffff1673ffffffffffffffffffffffffffffffffffffffff16815260200190815260200160002060008581526020019081526020016000206120fa600185611cd090919063ffffffff16565b81548110612131577f4e487b7100000000000000000000000000000000000000000000000000000000600052603260045260246000fd5b90600052602060002001819055506000600960008973ffffffffffffffffffffffffffffffffffffffff1673ffffffffffffffffffffffffffffffffffffffff16815260200190815260200160002060008581526020019081526020016000206000878152602001908152602001600020819055506000600860008973ffffffffffffffffffffffffffffffffffffffff1673ffffffffffffffffffffffffffffffffffffffff168152602001908152602001600020600087815260200190815260200160002061220c600184611cd090919063ffffffff16565b81548110612243577f4e487b7100000000000000000000000000000000000000000000000000000000600052603260045260246000fd5b90600052602060002001819055506000600a60008973ffffffffffffffffffffffffffffffffffffffff1673ffffffffffffffffffffffffffffffffffffffff16815260200190815260200160002060008781526020019081526020016000206000858152602001908152602001600020819055505050505b80806122c790614472565b915050611ec7565b507f2e3ea69fad1b9c975968c04d45ee188d627573acf9a8bedd4910f842209688a485858560405161230393929190613f96565b60405180910390a15050505050565b60007f7fffffffffffffffffffffffffffffff5d576e7357a4501ddfe92f46681b20a08260001c11156123485760009050612405565b601b8460ff16141580156123605750601c8460ff1614155b1561236e5760009050612405565b6000600186868686604051600081526020016040526040516123939493929190613ff6565b6020604051602081039080840390855afa1580156123b5573d6000803e3d6000fd5b505050602060405103519050600073ffffffffffffffffffffffffffffffffffffffff168173ffffffffffffffffffffffffffffffffffffffff161415612400576000915050612405565b809150505b949350505050565b61249d600280548060200260200160405190810160405280929190818152602001828054801561249257602002820191906000526020600020905b8160009054906101000a900473ffffffffffffffffffffffffffffffffffffffff1673ffffffffffffffffffffffffffffffffffffffff1681526020019060010190808311612448575b505050505082611c22565b6040518060400160405280600b81526020017f4e6f2050726f766964657200000000000000000000000000000000000000000081525090612514576040517f08c379a000000000000000000000000000000000000000000000000000000000815260040161250b919061403b565b60405180910390fd5b5060006006836040516125279190613f42565b9081526020016040518091039020549050600081116040518060400160405280600681526020017f4e6f204349440000000000000000000000000000000000000000000000000000815250906125b3576040517f08c379a00000000000000000000000000000000000000000000000000000000081526004016125aa919061403b565b60405180910390fd5b5060005b845181101561295757600061260b8683815181106125fe577f4e487b7100000000000000000000000000000000000000000000000000000000600052603260045260246000fd5b60200260200101516134b8565b90506000600960008673ffffffffffffffffffffffffffffffffffffffff1673ffffffffffffffffffffffffffffffffffffffff168152602001908152602001600020600083815260200190815260200160002060008581526020019081526020016000205414156127a857600760008573ffffffffffffffffffffffffffffffffffffffff1673ffffffffffffffffffffffffffffffffffffffff1681526020019081526020016000206000828152602001908152602001600020839080600181540180825580915050600190039060005260206000200160009091909190915055600760008573ffffffffffffffffffffffffffffffffffffffff1673ffffffffffffffffffffffffffffffffffffffff168152602001908152602001600020600082815260200190815260200160002080549050600960008673ffffffffffffffffffffffffffffffffffffffff1673ffffffffffffffffffffffffffffffffffffffff16815260200190815260200160002060008381526020019081526020016000206000858152602001908152602001600020819055505b6000600a60008673ffffffffffffffffffffffffffffffffffffffff1673ffffffffffffffffffffffffffffffffffffffff1681526020019081526020016000206000858152602001908152602001600020600083815260200190815260200160002054141561294357600860008573ffffffffffffffffffffffffffffffffffffffff1673ffffffffffffffffffffffffffffffffffffffff1681526020019081526020016000206000848152602001908152602001600020819080600181540180825580915050600190039060005260206000200160009091909190915055600860008573ffffffffffffffffffffffffffffffffffffffff1673ffffffffffffffffffffffffffffffffffffffff168152602001908152602001600020600084815260200190815260200160002080549050600a60008673ffffffffffffffffffffffffffffffffffffffff1673ffffffffffffffffffffffffffffffffffffffff16815260200190815260200160002060008581526020019081526020016000206000838152602001908152602001600020819055505b50808061294f90614472565b9150506125b7565b507f9f7cccf3e9341a8cb00a31d6eb50b887428d114bdd545d98869a9b8cac8a084084848460405161298b93929190613f96565b60405180910390a150505050565b612a296002805480602002602001604051908101604052809291908181526020018280548015612a1e57602002820191906000526020600020905b8160009054906101000a900473ffffffffffffffffffffffffffffffffffffffff1673ffffffffffffffffffffffffffffffffffffffff16815260200190600101908083116129d4575b505050505082611c22565b6040518060400160405280600b81526020017f4e6f2050726f766964657200000000000000000000000000000000000000000081525090612aa0576040517f08c379a0000000000000000000000000000000000000000000000000000000008152600401612a97919061403b565b60405180910390fd5b506000600683604051612ab39190613f42565b9081526020016040518091039020549050600081116040518060400160405280600681526020017f4e6f20434944000000000000000000000000000000000000000000000000000081525090612b3f576040517f08c379a0000000000000000000000000000000000000000000000000000000008152600401612b36919061403b565b60405180910390fd5b506000600860008473ffffffffffffffffffffffffffffffffffffffff1673ffffffffffffffffffffffffffffffffffffffff1681526020019081526020016000206000838152602001908152602001600020805480602002602001604051908101604052809291908181526020018280548015612bdc57602002820191906000526020600020905b815481526020019060010190808311612bc8575b5050505050905060005b8151811015612f9b576000600960008673ffffffffffffffffffffffffffffffffffffffff1673ffffffffffffffffffffffffffffffffffffffff1681526020019081526020016000206000848481518110612c6b577f4e487b7100000000000000000000000000000000000000000000000000000000600052603260045260246000fd5b60200260200101518152602001908152602001600020600085815260200190815260200160002054905060008114612e30576000600760008773ffffffffffffffffffffffffffffffffffffffff1673ffffffffffffffffffffffffffffffffffffffff1681526020019081526020016000206000858581518110612d19577f4e487b7100000000000000000000000000000000000000000000000000000000600052603260045260246000fd5b60200260200101518152602001908152602001600020612d43600184611cd090919063ffffffff16565b81548110612d7a577f4e487b7100000000000000000000000000000000000000000000000000000000600052603260045260246000fd5b90600052602060002001819055506000600960008773ffffffffffffffffffffffffffffffffffffffff1673ffffffffffffffffffffffffffffffffffffffff1681526020019081526020016000206000858581518110612e04577f4e487b7100000000000000000000000000000000000000000000000000000000600052603260045260246000fd5b602002602001015181526020019081526020016000206000868152602001908152602001600020819055505b6000600a60008773ffffffffffffffffffffffffffffffffffffffff1673ffffffffffffffffffffffffffffffffffffffff16815260200190815260200160002060008681526020019081526020016000206000858581518110612ebd577f4e487b7100000000000000000000000000000000000000000000000000000000600052603260045260246000fd5b6020026020010151815260200190815260200160002054905060008114612f86576000600a60008873ffffffffffffffffffffffffffffffffffffffff1673ffffffffffffffffffffffffffffffffffffffff16815260200190815260200160002060008781526020019081526020016000206000868681518110612f6b577f4e487b7100000000000000000000000000000000000000000000000000000000600052603260045260246000fd5b60200260200101518152602001908152602001600020819055505b50508080612f9390614472565b915050612be6565b50600067ffffffffffffffff811115612fdd577f4e487b7100000000000000000000000000000000000000000000000000000000600052604160045260246000fd5b60405190808252806020026020018201604052801561300b5781602001602082028036833780820191505090505b50600860008573ffffffffffffffffffffffffffffffffffffffff1673ffffffffffffffffffffffffffffffffffffffff1681526020019081526020016000206000848152602001908152602001600020908051906020019061306f9291906136d3565b506000815167ffffffffffffffff8111156130b3577f4e487b7100000000000000000000000000000000000000000000000000000000600052604160045260246000fd5b6040519080825280602002602001820160405280156130e657816020015b60608152602001906001900390816130d15790505b50905060005b8251811015613259576003838281518110613130577f4e487b7100000000000000000000000000000000000000000000000000000000600052603260045260246000fd5b60200260200101518154811061316f577f4e487b7100000000000000000000000000000000000000000000000000000000600052603260045260246000fd5b9060005260206000200180546131849061440f565b80601f01602080910402602001604051908101604052809291908181526020018280546131b09061440f565b80156131fd5780601f106131d2576101008083540402835291602001916131fd565b820191906000526020600020905b8154815290600101906020018083116131e057829003601f168201915b505050505082828151811061323b577f4e487b7100000000000000000000000000000000000000000000000000000000600052603260045260246000fd5b6020026020010181905250808061325190614472565b9150506130ec565b507fe5933bd4ca864e05c328031b311c67e9a3b2d9a51366ff4578b3a25ec9caa8df81868660405161328d93929190613f96565b60405180910390a15050505050565b60006132a783613579565b9050613339600280548060200260200160405190810160405280929190818152602001828054801561332e57602002820191906000526020600020905b8160009054906101000a900473ffffffffffffffffffffffffffffffffffffffff1673ffffffffffffffffffffffffffffffffffffffff16815260200190600101908083116132e4575b505050505083611c22565b6040518060400160405280600b81526020017f4e6f2050726f7669646572000000000000000000000000000000000000000000815250906133b0576040517f08c379a00000000000000000000000000000000000000000000000000000000081526004016133a7919061403b565b60405180910390fd5b506000600860008473ffffffffffffffffffffffffffffffffffffffff1673ffffffffffffffffffffffffffffffffffffffff16815260200190815260200160002060008381526020019081526020016000208054905014613417576134168383612999565b5b61342284848461240d565b7fba91f5f4cc38ce74d9cd1c72af0a5646290612dda73d452fb356a41a6e1c2e0184848460405161345593929190613f96565b60405180910390a150505050565b600061346e3061363a565b15905090565b80600060026101000a81548173ffffffffffffffffffffffffffffffffffffffff021916908373ffffffffffffffffffffffffffffffffffffffff16021790555050565b60008060006005846040516134cd9190613f42565b908152602001604051809103902054141561354e5760038390806001815401808255809150506001900390600052602060002001600090919091909150908051906020019061351d92919061364d565b506003805490509050806005846040516135379190613f42565b908152602001604051809103902081905550613570565b60058360405161355e9190613f42565b90815260200160405180910390205490505b80915050919050565b600080600060068460405161358e9190613f42565b908152602001604051809103902054141561360f576004839080600181540180825580915050600190039060005260206000200160009091909190915090805190602001906135de92919061364d565b506004805490509050806006846040516135f89190613f42565b908152602001604051809103902081905550613631565b60068360405161361f9190613f42565b90815260200160405180910390205490505b80915050919050565b600080823b905060008111915050919050565b8280546136599061440f565b90600052602060002090601f01602090048101928261367b57600085556136c2565b82601f1061369457805160ff19168380011785556136c2565b828001600101855582156136c2579182015b828111156136c15782518255916020019190600101906136a6565b5b5090506136cf9190613720565b5090565b82805482825590600052602060002090810192821561370f579160200282015b8281111561370e5782518255916020019190600101906136f3565b5b50905061371c9190613720565b5090565b5b80821115613739576000816000905550600101613721565b5090565b600061375061374b84614216565b6141f1565b9050808382526020820190508285602086028201111561376f57600080fd5b60005b858110156137b957813567ffffffffffffffff81111561379157600080fd5b80860161379e898261386a565b85526020850194506020840193505050600181019050613772565b5050509392505050565b60006137d66137d184614242565b6141f1565b9050828152602081018484840111156137ee57600080fd5b6137f98482856143cd565b509392505050565b6000813590506138108161464c565b92915050565b600082601f83011261382757600080fd5b813561383784826020860161373d565b91505092915050565b60008135905061384f81614663565b92915050565b6000813590506138648161467a565b92915050565b600082601f83011261387b57600080fd5b813561388b8482602086016137c3565b91505092915050565b6000813590506138a381614691565b92915050565b6000813590506138b8816146a8565b92915050565b6000602082840312156138d057600080fd5b60006138de84828501613801565b91505092915050565b6000806000606084860312156138fc57600080fd5b600061390a86828701613801565b935050602061391b86828701613894565b925050604061392c86828701613894565b9150509250925092565b6000806040838503121561394957600080fd5b600083013567ffffffffffffffff81111561396357600080fd5b61396f85828601613816565b925050602083013567ffffffffffffffff81111561398c57600080fd5b6139988582860161386a565b9150509250929050565b6000806000606084860312156139b757600080fd5b600084013567ffffffffffffffff8111156139d157600080fd5b6139dd86828701613816565b935050602084013567ffffffffffffffff8111156139fa57600080fd5b613a068682870161386a565b9250506040613a1786828701613840565b9150509250925092565b600080600080600080600060e0888a031215613a3c57600080fd5b600088013567ffffffffffffffff811115613a5657600080fd5b613a628a828b01613816565b975050602088013567ffffffffffffffff811115613a7f57600080fd5b613a8b8a828b0161386a565b9650506040613a9c8a828b01613840565b9550506060613aad8a828b01613894565b9450506080613abe8a828b016138a9565b93505060a0613acf8a828b01613855565b92505060c0613ae08a828b01613855565b91505092959891949750929550565b60008060008060008060c08789031215613b0857600080fd5b600087013567ffffffffffffffff811115613b2257600080fd5b613b2e89828a01613816565b965050602087013567ffffffffffffffff811115613b4b57600080fd5b613b5789828a0161386a565b9550506040613b6889828a01613894565b9450506060613b7989828a016138a9565b9350506080613b8a89828a01613855565b92505060a0613b9b89828a01613855565b9150509295509295509295565b600060208284031215613bba57600080fd5b600082013567ffffffffffffffff811115613bd457600080fd5b613be08482850161386a565b91505092915050565b60008060008060808587031215613bff57600080fd5b600085013567ffffffffffffffff811115613c1957600080fd5b613c258782880161386a565b9450506020613c3687828801613801565b9350506040613c4787828801613894565b9250506060613c5887828801613894565b91505092959194509250565b600080600080600060a08688031215613c7c57600080fd5b600086013567ffffffffffffffff811115613c9657600080fd5b613ca28882890161386a565b9550506020613cb388828901613894565b9450506040613cc4888289016138a9565b9350506060613cd588828901613855565b9250506080613ce688828901613855565b9150509295509295909350565b600060208284031215613d0557600080fd5b6000613d1384828501613894565b91505092915050565b6000613d288383613dd2565b905092915050565b613d398161436e565b82525050565b6000613d4a82614283565b613d5481856142a6565b935083602082028501613d6685614273565b8060005b85811015613da25784840389528151613d838582613d1c565b9450613d8e83614299565b925060208a01995050600181019050613d6a565b50829750879550505050505092915050565b613dbd81614380565b82525050565b613dcc8161438c565b82525050565b6000613ddd8261428e565b613de781856142b7565b9350613df78185602086016143dc565b613e0081614548565b840191505092915050565b6000613e168261428e565b613e2081856142c8565b9350613e308185602086016143dc565b613e3981614548565b840191505092915050565b6000613e4f8261428e565b613e5981856142d9565b9350613e698185602086016143dc565b80840191505092915050565b6000613e826005836142c8565b9150613e8d82614559565b602082019050919050565b6000613ea56003836142c8565b9150613eb082614582565b602082019050919050565b6000613ec8602e836142c8565b9150613ed3826145ab565b604082019050919050565b6000613eeb6006836142c8565b9150613ef6826145fa565b602082019050919050565b6000613f0e6003836142c8565b9150613f1982614623565b602082019050919050565b613f2d816143b6565b82525050565b613f3c816143c0565b82525050565b6000613f4e8284613e44565b915081905092915050565b6000602082019050613f6e6000830184613d30565b92915050565b60006020820190508181036000830152613f8e8184613d3f565b905092915050565b60006060820190508181036000830152613fb08186613d3f565b90508181036020830152613fc48185613e0b565b9050613fd36040830184613d30565b949350505050565b6000602082019050613ff06000830184613db4565b92915050565b600060808201905061400b6000830187613dc3565b6140186020830186613f33565b6140256040830185613dc3565b6140326060830184613dc3565b95945050505050565b600060208201905081810360008301526140558184613e0b565b905092915050565b6000606082019050818103600083015261407681613e75565b9050818103602083015261408a8185613e0b565b90506140996040830184613f24565b9392505050565b600060808201905081810360008301526140b981613e98565b905081810360208301526140cd8186613e0b565b905081810360408301526140e18185613d3f565b90506140f06060830184613f24565b949350505050565b6000602082019050818103600083015261411181613ebb565b9050919050565b600060a082019050818103600083015261413181613ede565b905081810360208301526141458187613e0b565b905081810360408301526141598186613d3f565b90506141686060830185613db4565b6141756080830184613f24565b95945050505050565b6000608082019050818103600083015261419781613f01565b905081810360208301526141ab8186613e0b565b905081810360408301526141bf8185613d3f565b90506141ce6060830184613f24565b949350505050565b60006020820190506141eb6000830184613f24565b92915050565b60006141fb61420c565b90506142078282614441565b919050565b6000604051905090565b600067ffffffffffffffff82111561423157614230614519565b5b602082029050602081019050919050565b600067ffffffffffffffff82111561425d5761425c614519565b5b61426682614548565b9050602081019050919050565b6000819050602082019050919050565b600081519050919050565b600081519050919050565b6000602082019050919050565b600082825260208201905092915050565b600082825260208201905092915050565b600082825260208201905092915050565b600081905092915050565b60006142ef826143b6565b91506142fa836143b6565b9250827fffffffffffffffffffffffffffffffffffffffffffffffffffffffffffffffff0382111561432f5761432e6144bb565b5b828201905092915050565b6000614345826143b6565b9150614350836143b6565b925082821015614363576143626144bb565b5b828203905092915050565b600061437982614396565b9050919050565b60008115159050919050565b6000819050919050565b600073ffffffffffffffffffffffffffffffffffffffff82169050919050565b6000819050919050565b600060ff82169050919050565b82818337600083830152505050565b60005b838110156143fa5780820151818401526020810190506143df565b83811115614409576000848401525b50505050565b6000600282049050600182168061442757607f821691505b6020821081141561443b5761443a6144ea565b5b50919050565b61444a82614548565b810181811067ffffffffffffffff8211171561446957614468614519565b5b80604052505050565b600061447d826143b6565b91507fffffffffffffffffffffffffffffffffffffffffffffffffffffffffffffffff8214156144b0576144af6144bb565b5b600182019050919050565b7f4e487b7100000000000000000000000000000000000000000000000000000000600052601160045260246000fd5b7f4e487b7100000000000000000000000000000000000000000000000000000000600052602260045260246000fd5b7f4e487b7100000000000000000000000000000000000000000000000000000000600052604160045260246000fd5b6000601f19601f8301169050919050565b7f434c454152000000000000000000000000000000000000000000000000000000600082015250565b7f5345540000000000000000000000000000000000000000000000000000000000600082015250565b7f496e697469616c697a61626c653a20636f6e747261637420697320616c72656160008201527f647920696e697469616c697a6564000000000000000000000000000000000000602082015250565b7f52454d4f56450000000000000000000000000000000000000000000000000000600082015250565b7f4144440000000000000000000000000000000000000000000000000000000000600082015250565b6146558161436e565b811461466057600080fd5b50565b61466c81614380565b811461467757600080fd5b50565b6146838161438c565b811461468e57600080fd5b50565b61469a816143b6565b81146146a557600080fd5b50565b6146b1816143c0565b81146146bc57600080fd5b5056fea264697066735822122075b789898c7573e422d74a1002596855249f93c661d63bdebdda48893c01d62b64736f6c63430008040033",
  "linkReferences": {},
  "deployedLinkReferences": {}
}